{
  "_format": "hh-sol-artifact-1",
  "contractName": "MyGovernor",
  "sourceName": "contracts/MyGovernor.sol",
  "abi": [
    {
      "inputs": [
        {
          "internalType": "contract IVotes",
          "name": "_token",
          "type": "address"
        },
        {
          "internalType": "contract TimelockController",
          "name": "_timelock",
          "type": "address"
        }
      ],
      "stateMutability": "nonpayable",
      "type": "constructor"
    },
    {
      "inputs": [],
      "name": "CheckpointUnorderedInsertion",
      "type": "error"
    },
    {
      "inputs": [],
      "name": "FailedCall",
      "type": "error"
    },
    {
      "inputs": [
        {
          "internalType": "address",
          "name": "voter",
          "type": "address"
        }
      ],
      "name": "GovernorAlreadyCastVote",
      "type": "error"
    },
    {
      "inputs": [
        {
          "internalType": "uint256",
          "name": "proposalId",
          "type": "uint256"
        }
      ],
      "name": "GovernorAlreadyQueuedProposal",
      "type": "error"
    },
    {
      "inputs": [],
      "name": "GovernorDisabledDeposit",
      "type": "error"
    },
    {
      "inputs": [
        {
          "internalType": "address",
          "name": "proposer",
          "type": "address"
        },
        {
          "internalType": "uint256",
          "name": "votes",
          "type": "uint256"
        },
        {
          "internalType": "uint256",
          "name": "threshold",
          "type": "uint256"
        }
      ],
      "name": "GovernorInsufficientProposerVotes",
      "type": "error"
    },
    {
      "inputs": [
        {
          "internalType": "uint256",
          "name": "targets",
          "type": "uint256"
        },
        {
          "internalType": "uint256",
          "name": "calldatas",
          "type": "uint256"
        },
        {
          "internalType": "uint256",
          "name": "values",
          "type": "uint256"
        }
      ],
      "name": "GovernorInvalidProposalLength",
      "type": "error"
    },
    {
      "inputs": [
        {
          "internalType": "uint256",
          "name": "quorumNumerator",
          "type": "uint256"
        },
        {
          "internalType": "uint256",
          "name": "quorumDenominator",
          "type": "uint256"
        }
      ],
      "name": "GovernorInvalidQuorumFraction",
      "type": "error"
    },
    {
      "inputs": [
        {
          "internalType": "address",
          "name": "voter",
          "type": "address"
        }
      ],
      "name": "GovernorInvalidSignature",
      "type": "error"
    },
    {
      "inputs": [],
      "name": "GovernorInvalidVoteParams",
      "type": "error"
    },
    {
      "inputs": [],
      "name": "GovernorInvalidVoteType",
      "type": "error"
    },
    {
      "inputs": [
        {
          "internalType": "uint256",
          "name": "votingPeriod",
          "type": "uint256"
        }
      ],
      "name": "GovernorInvalidVotingPeriod",
      "type": "error"
    },
    {
      "inputs": [
        {
          "internalType": "uint256",
          "name": "proposalId",
          "type": "uint256"
        }
      ],
      "name": "GovernorNonexistentProposal",
      "type": "error"
    },
    {
      "inputs": [
        {
          "internalType": "uint256",
          "name": "proposalId",
          "type": "uint256"
        }
      ],
      "name": "GovernorNotQueuedProposal",
      "type": "error"
    },
    {
      "inputs": [
        {
          "internalType": "address",
          "name": "account",
          "type": "address"
        }
      ],
      "name": "GovernorOnlyExecutor",
      "type": "error"
    },
    {
      "inputs": [],
      "name": "GovernorQueueNotImplemented",
      "type": "error"
    },
    {
      "inputs": [
        {
          "internalType": "address",
          "name": "proposer",
          "type": "address"
        }
      ],
      "name": "GovernorRestrictedProposer",
      "type": "error"
    },
    {
      "inputs": [
        {
          "internalType": "uint256",
          "name": "proposalId",
          "type": "uint256"
        },
        {
          "internalType": "address",
          "name": "account",
          "type": "address"
        }
      ],
      "name": "GovernorUnableToCancel",
      "type": "error"
    },
    {
      "inputs": [
        {
          "internalType": "uint256",
          "name": "proposalId",
          "type": "uint256"
        },
        {
          "internalType": "enum IGovernor.ProposalState",
          "name": "current",
          "type": "uint8"
        },
        {
          "internalType": "bytes32",
          "name": "expectedStates",
          "type": "bytes32"
        }
      ],
      "name": "GovernorUnexpectedProposalState",
      "type": "error"
    },
    {
      "inputs": [
        {
          "internalType": "address",
          "name": "account",
          "type": "address"
        },
        {
          "internalType": "uint256",
          "name": "currentNonce",
          "type": "uint256"
        }
      ],
      "name": "InvalidAccountNonce",
      "type": "error"
    },
    {
      "inputs": [],
      "name": "InvalidShortString",
      "type": "error"
    },
    {
      "inputs": [
        {
          "internalType": "uint8",
          "name": "bits",
          "type": "uint8"
        },
        {
          "internalType": "uint256",
          "name": "value",
          "type": "uint256"
        }
      ],
      "name": "SafeCastOverflowedUintDowncast",
      "type": "error"
    },
    {
      "inputs": [
        {
          "internalType": "string",
          "name": "str",
          "type": "string"
        }
      ],
      "name": "StringTooLong",
      "type": "error"
    },
    {
      "anonymous": false,
      "inputs": [],
      "name": "EIP712DomainChanged",
      "type": "event"
    },
    {
      "anonymous": false,
      "inputs": [
        {
          "indexed": false,
          "internalType": "uint256",
          "name": "proposalId",
          "type": "uint256"
        }
      ],
      "name": "ProposalCanceled",
      "type": "event"
    },
    {
      "anonymous": false,
      "inputs": [
        {
          "indexed": false,
          "internalType": "uint256",
          "name": "proposalId",
          "type": "uint256"
        },
        {
          "indexed": false,
          "internalType": "address",
          "name": "proposer",
          "type": "address"
        },
        {
          "indexed": false,
          "internalType": "address[]",
          "name": "targets",
          "type": "address[]"
        },
        {
          "indexed": false,
          "internalType": "uint256[]",
          "name": "values",
          "type": "uint256[]"
        },
        {
          "indexed": false,
          "internalType": "string[]",
          "name": "signatures",
          "type": "string[]"
        },
        {
          "indexed": false,
          "internalType": "bytes[]",
          "name": "calldatas",
          "type": "bytes[]"
        },
        {
          "indexed": false,
          "internalType": "uint256",
          "name": "voteStart",
          "type": "uint256"
        },
        {
          "indexed": false,
          "internalType": "uint256",
          "name": "voteEnd",
          "type": "uint256"
        },
        {
          "indexed": false,
          "internalType": "string",
          "name": "description",
          "type": "string"
        }
      ],
      "name": "ProposalCreated",
      "type": "event"
    },
    {
      "anonymous": false,
      "inputs": [
        {
          "indexed": false,
          "internalType": "uint256",
          "name": "proposalId",
          "type": "uint256"
        }
      ],
      "name": "ProposalExecuted",
      "type": "event"
    },
    {
      "anonymous": false,
      "inputs": [
        {
          "indexed": false,
          "internalType": "uint256",
          "name": "proposalId",
          "type": "uint256"
        },
        {
          "indexed": false,
          "internalType": "uint256",
          "name": "etaSeconds",
          "type": "uint256"
        }
      ],
      "name": "ProposalQueued",
      "type": "event"
    },
    {
      "anonymous": false,
      "inputs": [
        {
          "indexed": false,
          "internalType": "uint256",
          "name": "oldProposalThreshold",
          "type": "uint256"
        },
        {
          "indexed": false,
          "internalType": "uint256",
          "name": "newProposalThreshold",
          "type": "uint256"
        }
      ],
      "name": "ProposalThresholdSet",
      "type": "event"
    },
    {
      "anonymous": false,
      "inputs": [
        {
          "indexed": false,
          "internalType": "uint256",
          "name": "oldQuorumNumerator",
          "type": "uint256"
        },
        {
          "indexed": false,
          "internalType": "uint256",
          "name": "newQuorumNumerator",
          "type": "uint256"
        }
      ],
      "name": "QuorumNumeratorUpdated",
      "type": "event"
    },
    {
      "anonymous": false,
      "inputs": [
        {
          "indexed": false,
          "internalType": "address",
          "name": "oldTimelock",
          "type": "address"
        },
        {
          "indexed": false,
          "internalType": "address",
          "name": "newTimelock",
          "type": "address"
        }
      ],
      "name": "TimelockChange",
      "type": "event"
    },
    {
      "anonymous": false,
      "inputs": [
        {
          "indexed": true,
          "internalType": "address",
          "name": "voter",
          "type": "address"
        },
        {
          "indexed": false,
          "internalType": "uint256",
          "name": "proposalId",
          "type": "uint256"
        },
        {
          "indexed": false,
          "internalType": "uint8",
          "name": "support",
          "type": "uint8"
        },
        {
          "indexed": false,
          "internalType": "uint256",
          "name": "weight",
          "type": "uint256"
        },
        {
          "indexed": false,
          "internalType": "string",
          "name": "reason",
          "type": "string"
        }
      ],
      "name": "VoteCast",
      "type": "event"
    },
    {
      "anonymous": false,
      "inputs": [
        {
          "indexed": true,
          "internalType": "address",
          "name": "voter",
          "type": "address"
        },
        {
          "indexed": false,
          "internalType": "uint256",
          "name": "proposalId",
          "type": "uint256"
        },
        {
          "indexed": false,
          "internalType": "uint8",
          "name": "support",
          "type": "uint8"
        },
        {
          "indexed": false,
          "internalType": "uint256",
          "name": "weight",
          "type": "uint256"
        },
        {
          "indexed": false,
          "internalType": "string",
          "name": "reason",
          "type": "string"
        },
        {
          "indexed": false,
          "internalType": "bytes",
          "name": "params",
          "type": "bytes"
        }
      ],
      "name": "VoteCastWithParams",
      "type": "event"
    },
    {
      "anonymous": false,
      "inputs": [
        {
          "indexed": false,
          "internalType": "uint256",
          "name": "oldVotingDelay",
          "type": "uint256"
        },
        {
          "indexed": false,
          "internalType": "uint256",
          "name": "newVotingDelay",
          "type": "uint256"
        }
      ],
      "name": "VotingDelaySet",
      "type": "event"
    },
    {
      "anonymous": false,
      "inputs": [
        {
          "indexed": false,
          "internalType": "uint256",
          "name": "oldVotingPeriod",
          "type": "uint256"
        },
        {
          "indexed": false,
          "internalType": "uint256",
          "name": "newVotingPeriod",
          "type": "uint256"
        }
      ],
      "name": "VotingPeriodSet",
      "type": "event"
    },
    {
      "inputs": [],
      "name": "BALLOT_TYPEHASH",
      "outputs": [
        {
          "internalType": "bytes32",
          "name": "",
          "type": "bytes32"
        }
      ],
      "stateMutability": "view",
      "type": "function"
    },
    {
      "inputs": [],
      "name": "CLOCK_MODE",
      "outputs": [
        {
          "internalType": "string",
          "name": "",
          "type": "string"
        }
      ],
      "stateMutability": "view",
      "type": "function"
    },
    {
      "inputs": [],
      "name": "COUNTING_MODE",
      "outputs": [
        {
          "internalType": "string",
          "name": "",
          "type": "string"
        }
      ],
      "stateMutability": "pure",
      "type": "function"
    },
    {
      "inputs": [],
      "name": "EXTENDED_BALLOT_TYPEHASH",
      "outputs": [
        {
          "internalType": "bytes32",
          "name": "",
          "type": "bytes32"
        }
      ],
      "stateMutability": "view",
      "type": "function"
    },
    {
      "inputs": [
        {
          "internalType": "uint256",
          "name": "proposalId",
          "type": "uint256"
        }
      ],
      "name": "cancel",
      "outputs": [],
      "stateMutability": "nonpayable",
      "type": "function"
    },
    {
      "inputs": [
        {
          "internalType": "address[]",
          "name": "targets",
          "type": "address[]"
        },
        {
          "internalType": "uint256[]",
          "name": "values",
          "type": "uint256[]"
        },
        {
          "internalType": "bytes[]",
          "name": "calldatas",
          "type": "bytes[]"
        },
        {
          "internalType": "bytes32",
          "name": "descriptionHash",
          "type": "bytes32"
        }
      ],
      "name": "cancel",
      "outputs": [
        {
          "internalType": "uint256",
          "name": "",
          "type": "uint256"
        }
      ],
      "stateMutability": "nonpayable",
      "type": "function"
    },
    {
      "inputs": [
        {
          "internalType": "uint256",
          "name": "proposalId",
          "type": "uint256"
        },
        {
          "internalType": "uint8",
          "name": "support",
          "type": "uint8"
        }
      ],
      "name": "castVote",
      "outputs": [
        {
          "internalType": "uint256",
          "name": "",
          "type": "uint256"
        }
      ],
      "stateMutability": "nonpayable",
      "type": "function"
    },
    {
      "inputs": [
        {
          "internalType": "uint256",
          "name": "proposalId",
          "type": "uint256"
        },
        {
          "internalType": "uint8",
          "name": "support",
          "type": "uint8"
        },
        {
          "internalType": "address",
          "name": "voter",
          "type": "address"
        },
        {
          "internalType": "bytes",
          "name": "signature",
          "type": "bytes"
        }
      ],
      "name": "castVoteBySig",
      "outputs": [
        {
          "internalType": "uint256",
          "name": "",
          "type": "uint256"
        }
      ],
      "stateMutability": "nonpayable",
      "type": "function"
    },
    {
      "inputs": [
        {
          "internalType": "uint256",
          "name": "proposalId",
          "type": "uint256"
        },
        {
          "internalType": "uint8",
          "name": "support",
          "type": "uint8"
        },
        {
          "internalType": "string",
          "name": "reason",
          "type": "string"
        }
      ],
      "name": "castVoteWithReason",
      "outputs": [
        {
          "internalType": "uint256",
          "name": "",
          "type": "uint256"
        }
      ],
      "stateMutability": "nonpayable",
      "type": "function"
    },
    {
      "inputs": [
        {
          "internalType": "uint256",
          "name": "proposalId",
          "type": "uint256"
        },
        {
          "internalType": "uint8",
          "name": "support",
          "type": "uint8"
        },
        {
          "internalType": "string",
          "name": "reason",
          "type": "string"
        },
        {
          "internalType": "bytes",
          "name": "params",
          "type": "bytes"
        }
      ],
      "name": "castVoteWithReasonAndParams",
      "outputs": [
        {
          "internalType": "uint256",
          "name": "",
          "type": "uint256"
        }
      ],
      "stateMutability": "nonpayable",
      "type": "function"
    },
    {
      "inputs": [
        {
          "internalType": "uint256",
          "name": "proposalId",
          "type": "uint256"
        },
        {
          "internalType": "uint8",
          "name": "support",
          "type": "uint8"
        },
        {
          "internalType": "address",
          "name": "voter",
          "type": "address"
        },
        {
          "internalType": "string",
          "name": "reason",
          "type": "string"
        },
        {
          "internalType": "bytes",
          "name": "params",
          "type": "bytes"
        },
        {
          "internalType": "bytes",
          "name": "signature",
          "type": "bytes"
        }
      ],
      "name": "castVoteWithReasonAndParamsBySig",
      "outputs": [
        {
          "internalType": "uint256",
          "name": "",
          "type": "uint256"
        }
      ],
      "stateMutability": "nonpayable",
      "type": "function"
    },
    {
      "inputs": [],
      "name": "clock",
      "outputs": [
        {
          "internalType": "uint48",
          "name": "",
          "type": "uint48"
        }
      ],
      "stateMutability": "view",
      "type": "function"
    },
    {
      "inputs": [],
      "name": "eip712Domain",
      "outputs": [
        {
          "internalType": "bytes1",
          "name": "fields",
          "type": "bytes1"
        },
        {
          "internalType": "string",
          "name": "name",
          "type": "string"
        },
        {
          "internalType": "string",
          "name": "version",
          "type": "string"
        },
        {
          "internalType": "uint256",
          "name": "chainId",
          "type": "uint256"
        },
        {
          "internalType": "address",
          "name": "verifyingContract",
          "type": "address"
        },
        {
          "internalType": "bytes32",
          "name": "salt",
          "type": "bytes32"
        },
        {
          "internalType": "uint256[]",
          "name": "extensions",
          "type": "uint256[]"
        }
      ],
      "stateMutability": "view",
      "type": "function"
    },
    {
      "inputs": [
        {
          "internalType": "address[]",
          "name": "targets",
          "type": "address[]"
        },
        {
          "internalType": "uint256[]",
          "name": "values",
          "type": "uint256[]"
        },
        {
          "internalType": "bytes[]",
          "name": "calldatas",
          "type": "bytes[]"
        },
        {
          "internalType": "bytes32",
          "name": "descriptionHash",
          "type": "bytes32"
        }
      ],
      "name": "execute",
      "outputs": [
        {
          "internalType": "uint256",
          "name": "",
          "type": "uint256"
        }
      ],
      "stateMutability": "payable",
      "type": "function"
    },
    {
      "inputs": [
        {
          "internalType": "uint256",
          "name": "proposalId",
          "type": "uint256"
        }
      ],
      "name": "execute",
      "outputs": [],
      "stateMutability": "payable",
      "type": "function"
    },
    {
      "inputs": [
        {
          "internalType": "address[]",
          "name": "targets",
          "type": "address[]"
        },
        {
          "internalType": "uint256[]",
          "name": "values",
          "type": "uint256[]"
        },
        {
          "internalType": "bytes[]",
          "name": "calldatas",
          "type": "bytes[]"
        },
        {
          "internalType": "bytes32",
          "name": "descriptionHash",
          "type": "bytes32"
        }
      ],
      "name": "getProposalId",
      "outputs": [
        {
          "internalType": "uint256",
          "name": "",
          "type": "uint256"
        }
      ],
      "stateMutability": "view",
      "type": "function"
    },
    {
      "inputs": [
        {
          "internalType": "address",
          "name": "account",
          "type": "address"
        },
        {
          "internalType": "uint256",
          "name": "timepoint",
          "type": "uint256"
        }
      ],
      "name": "getVotes",
      "outputs": [
        {
          "internalType": "uint256",
          "name": "",
          "type": "uint256"
        }
      ],
      "stateMutability": "view",
      "type": "function"
    },
    {
      "inputs": [
        {
          "internalType": "address",
          "name": "account",
          "type": "address"
        },
        {
          "internalType": "uint256",
          "name": "timepoint",
          "type": "uint256"
        },
        {
          "internalType": "bytes",
          "name": "params",
          "type": "bytes"
        }
      ],
      "name": "getVotesWithParams",
      "outputs": [
        {
          "internalType": "uint256",
          "name": "",
          "type": "uint256"
        }
      ],
      "stateMutability": "view",
      "type": "function"
    },
    {
      "inputs": [
        {
          "internalType": "uint256",
          "name": "proposalId",
          "type": "uint256"
        },
        {
          "internalType": "address",
          "name": "account",
          "type": "address"
        }
      ],
      "name": "hasVoted",
      "outputs": [
        {
          "internalType": "bool",
          "name": "",
          "type": "bool"
        }
      ],
      "stateMutability": "view",
      "type": "function"
    },
    {
      "inputs": [
        {
          "internalType": "address[]",
          "name": "targets",
          "type": "address[]"
        },
        {
          "internalType": "uint256[]",
          "name": "values",
          "type": "uint256[]"
        },
        {
          "internalType": "bytes[]",
          "name": "calldatas",
          "type": "bytes[]"
        },
        {
          "internalType": "bytes32",
          "name": "descriptionHash",
          "type": "bytes32"
        }
      ],
      "name": "hashProposal",
      "outputs": [
        {
          "internalType": "uint256",
          "name": "",
          "type": "uint256"
        }
      ],
      "stateMutability": "pure",
      "type": "function"
    },
    {
      "inputs": [],
      "name": "name",
      "outputs": [
        {
          "internalType": "string",
          "name": "",
          "type": "string"
        }
      ],
      "stateMutability": "view",
      "type": "function"
    },
    {
      "inputs": [
        {
          "internalType": "address",
          "name": "owner",
          "type": "address"
        }
      ],
      "name": "nonces",
      "outputs": [
        {
          "internalType": "uint256",
          "name": "",
          "type": "uint256"
        }
      ],
      "stateMutability": "view",
      "type": "function"
    },
    {
      "inputs": [
        {
          "internalType": "address",
          "name": "",
          "type": "address"
        },
        {
          "internalType": "address",
          "name": "",
          "type": "address"
        },
        {
          "internalType": "uint256[]",
          "name": "",
          "type": "uint256[]"
        },
        {
          "internalType": "uint256[]",
          "name": "",
          "type": "uint256[]"
        },
        {
          "internalType": "bytes",
          "name": "",
          "type": "bytes"
        }
      ],
      "name": "onERC1155BatchReceived",
      "outputs": [
        {
          "internalType": "bytes4",
          "name": "",
          "type": "bytes4"
        }
      ],
      "stateMutability": "nonpayable",
      "type": "function"
    },
    {
      "inputs": [
        {
          "internalType": "address",
          "name": "",
          "type": "address"
        },
        {
          "internalType": "address",
          "name": "",
          "type": "address"
        },
        {
          "internalType": "uint256",
          "name": "",
          "type": "uint256"
        },
        {
          "internalType": "uint256",
          "name": "",
          "type": "uint256"
        },
        {
          "internalType": "bytes",
          "name": "",
          "type": "bytes"
        }
      ],
      "name": "onERC1155Received",
      "outputs": [
        {
          "internalType": "bytes4",
          "name": "",
          "type": "bytes4"
        }
      ],
      "stateMutability": "nonpayable",
      "type": "function"
    },
    {
      "inputs": [
        {
          "internalType": "address",
          "name": "",
          "type": "address"
        },
        {
          "internalType": "address",
          "name": "",
          "type": "address"
        },
        {
          "internalType": "uint256",
          "name": "",
          "type": "uint256"
        },
        {
          "internalType": "bytes",
          "name": "",
          "type": "bytes"
        }
      ],
      "name": "onERC721Received",
      "outputs": [
        {
          "internalType": "bytes4",
          "name": "",
          "type": "bytes4"
        }
      ],
      "stateMutability": "nonpayable",
      "type": "function"
    },
    {
      "inputs": [],
      "name": "proposalCount",
      "outputs": [
        {
          "internalType": "uint256",
          "name": "",
          "type": "uint256"
        }
      ],
      "stateMutability": "view",
      "type": "function"
    },
    {
      "inputs": [
        {
          "internalType": "uint256",
          "name": "proposalId",
          "type": "uint256"
        }
      ],
      "name": "proposalDeadline",
      "outputs": [
        {
          "internalType": "uint256",
          "name": "",
          "type": "uint256"
        }
      ],
      "stateMutability": "view",
      "type": "function"
    },
    {
      "inputs": [
        {
          "internalType": "uint256",
          "name": "proposalId",
          "type": "uint256"
        }
      ],
      "name": "proposalDetails",
      "outputs": [
        {
          "internalType": "address[]",
          "name": "targets",
          "type": "address[]"
        },
        {
          "internalType": "uint256[]",
          "name": "values",
          "type": "uint256[]"
        },
        {
          "internalType": "bytes[]",
          "name": "calldatas",
          "type": "bytes[]"
        },
        {
          "internalType": "bytes32",
          "name": "descriptionHash",
          "type": "bytes32"
        }
      ],
      "stateMutability": "view",
      "type": "function"
    },
    {
      "inputs": [
        {
          "internalType": "uint256",
          "name": "index",
          "type": "uint256"
        }
      ],
      "name": "proposalDetailsAt",
      "outputs": [
        {
          "internalType": "uint256",
          "name": "proposalId",
          "type": "uint256"
        },
        {
          "internalType": "address[]",
          "name": "targets",
          "type": "address[]"
        },
        {
          "internalType": "uint256[]",
          "name": "values",
          "type": "uint256[]"
        },
        {
          "internalType": "bytes[]",
          "name": "calldatas",
          "type": "bytes[]"
        },
        {
          "internalType": "bytes32",
          "name": "descriptionHash",
          "type": "bytes32"
        }
      ],
      "stateMutability": "view",
      "type": "function"
    },
    {
      "inputs": [
        {
          "internalType": "uint256",
          "name": "proposalId",
          "type": "uint256"
        }
      ],
      "name": "proposalEta",
      "outputs": [
        {
          "internalType": "uint256",
          "name": "",
          "type": "uint256"
        }
      ],
      "stateMutability": "view",
      "type": "function"
    },
    {
      "inputs": [
        {
          "internalType": "uint256",
          "name": "proposalId",
          "type": "uint256"
        }
      ],
      "name": "proposalNeedsQueuing",
      "outputs": [
        {
          "internalType": "bool",
          "name": "",
          "type": "bool"
        }
      ],
      "stateMutability": "view",
      "type": "function"
    },
    {
      "inputs": [
        {
          "internalType": "uint256",
          "name": "proposalId",
          "type": "uint256"
        }
      ],
      "name": "proposalProposer",
      "outputs": [
        {
          "internalType": "address",
          "name": "",
          "type": "address"
        }
      ],
      "stateMutability": "view",
      "type": "function"
    },
    {
      "inputs": [
        {
          "internalType": "uint256",
          "name": "proposalId",
          "type": "uint256"
        }
      ],
      "name": "proposalSnapshot",
      "outputs": [
        {
          "internalType": "uint256",
          "name": "",
          "type": "uint256"
        }
      ],
      "stateMutability": "view",
      "type": "function"
    },
    {
      "inputs": [],
      "name": "proposalThreshold",
      "outputs": [
        {
          "internalType": "uint256",
          "name": "",
          "type": "uint256"
        }
      ],
      "stateMutability": "view",
      "type": "function"
    },
    {
      "inputs": [
        {
          "internalType": "uint256",
          "name": "proposalId",
          "type": "uint256"
        }
      ],
      "name": "proposalVotes",
      "outputs": [
        {
          "internalType": "uint256",
          "name": "againstVotes",
          "type": "uint256"
        },
        {
          "internalType": "uint256",
          "name": "forVotes",
          "type": "uint256"
        },
        {
          "internalType": "uint256",
          "name": "abstainVotes",
          "type": "uint256"
        }
      ],
      "stateMutability": "view",
      "type": "function"
    },
    {
      "inputs": [
        {
          "internalType": "address[]",
          "name": "targets",
          "type": "address[]"
        },
        {
          "internalType": "uint256[]",
          "name": "values",
          "type": "uint256[]"
        },
        {
          "internalType": "bytes[]",
          "name": "calldatas",
          "type": "bytes[]"
        },
        {
          "internalType": "string",
          "name": "description",
          "type": "string"
        }
      ],
      "name": "propose",
      "outputs": [
        {
          "internalType": "uint256",
          "name": "",
          "type": "uint256"
        }
      ],
      "stateMutability": "nonpayable",
      "type": "function"
    },
    {
      "inputs": [
        {
          "internalType": "address[]",
          "name": "targets",
          "type": "address[]"
        },
        {
          "internalType": "uint256[]",
          "name": "values",
          "type": "uint256[]"
        },
        {
          "internalType": "bytes[]",
          "name": "calldatas",
          "type": "bytes[]"
        },
        {
          "internalType": "bytes32",
          "name": "descriptionHash",
          "type": "bytes32"
        }
      ],
      "name": "queue",
      "outputs": [
        {
          "internalType": "uint256",
          "name": "",
          "type": "uint256"
        }
      ],
      "stateMutability": "nonpayable",
      "type": "function"
    },
    {
      "inputs": [
        {
          "internalType": "uint256",
          "name": "proposalId",
          "type": "uint256"
        }
      ],
      "name": "queue",
      "outputs": [],
      "stateMutability": "nonpayable",
      "type": "function"
    },
    {
      "inputs": [
        {
          "internalType": "uint256",
          "name": "timepoint",
          "type": "uint256"
        }
      ],
      "name": "quorum",
      "outputs": [
        {
          "internalType": "uint256",
          "name": "",
          "type": "uint256"
        }
      ],
      "stateMutability": "view",
      "type": "function"
    },
    {
      "inputs": [],
      "name": "quorumDenominator",
      "outputs": [
        {
          "internalType": "uint256",
          "name": "",
          "type": "uint256"
        }
      ],
      "stateMutability": "view",
      "type": "function"
    },
    {
      "inputs": [
        {
          "internalType": "uint256",
          "name": "timepoint",
          "type": "uint256"
        }
      ],
      "name": "quorumNumerator",
      "outputs": [
        {
          "internalType": "uint256",
          "name": "",
          "type": "uint256"
        }
      ],
      "stateMutability": "view",
      "type": "function"
    },
    {
      "inputs": [],
      "name": "quorumNumerator",
      "outputs": [
        {
          "internalType": "uint256",
          "name": "",
          "type": "uint256"
        }
      ],
      "stateMutability": "view",
      "type": "function"
    },
    {
      "inputs": [
        {
          "internalType": "address",
          "name": "target",
          "type": "address"
        },
        {
          "internalType": "uint256",
          "name": "value",
          "type": "uint256"
        },
        {
          "internalType": "bytes",
          "name": "data",
          "type": "bytes"
        }
      ],
      "name": "relay",
      "outputs": [],
      "stateMutability": "payable",
      "type": "function"
    },
    {
      "inputs": [
        {
          "internalType": "uint256",
          "name": "newProposalThreshold",
          "type": "uint256"
        }
      ],
      "name": "setProposalThreshold",
      "outputs": [],
      "stateMutability": "nonpayable",
      "type": "function"
    },
    {
      "inputs": [
        {
          "internalType": "uint48",
          "name": "newVotingDelay",
          "type": "uint48"
        }
      ],
      "name": "setVotingDelay",
      "outputs": [],
      "stateMutability": "nonpayable",
      "type": "function"
    },
    {
      "inputs": [
        {
          "internalType": "uint32",
          "name": "newVotingPeriod",
          "type": "uint32"
        }
      ],
      "name": "setVotingPeriod",
      "outputs": [],
      "stateMutability": "nonpayable",
      "type": "function"
    },
    {
      "inputs": [
        {
          "internalType": "uint256",
          "name": "proposalId",
          "type": "uint256"
        }
      ],
      "name": "state",
      "outputs": [
        {
          "internalType": "enum IGovernor.ProposalState",
          "name": "",
          "type": "uint8"
        }
      ],
      "stateMutability": "view",
      "type": "function"
    },
    {
      "inputs": [
        {
          "internalType": "bytes4",
          "name": "interfaceId",
          "type": "bytes4"
        }
      ],
      "name": "supportsInterface",
      "outputs": [
        {
          "internalType": "bool",
          "name": "",
          "type": "bool"
        }
      ],
      "stateMutability": "view",
      "type": "function"
    },
    {
      "inputs": [],
      "name": "timelock",
      "outputs": [
        {
          "internalType": "address",
          "name": "",
          "type": "address"
        }
      ],
      "stateMutability": "view",
      "type": "function"
    },
    {
      "inputs": [],
      "name": "token",
      "outputs": [
        {
          "internalType": "contract IERC5805",
          "name": "",
          "type": "address"
        }
      ],
      "stateMutability": "view",
      "type": "function"
    },
    {
      "inputs": [
        {
          "internalType": "uint256",
          "name": "newQuorumNumerator",
          "type": "uint256"
        }
      ],
      "name": "updateQuorumNumerator",
      "outputs": [],
      "stateMutability": "nonpayable",
      "type": "function"
    },
    {
      "inputs": [
        {
          "internalType": "contract TimelockController",
          "name": "newTimelock",
          "type": "address"
        }
      ],
      "name": "updateTimelock",
      "outputs": [],
      "stateMutability": "nonpayable",
      "type": "function"
    },
    {
      "inputs": [],
      "name": "version",
      "outputs": [
        {
          "internalType": "string",
          "name": "",
          "type": "string"
        }
      ],
      "stateMutability": "view",
      "type": "function"
    },
    {
      "inputs": [],
      "name": "votingDelay",
      "outputs": [
        {
          "internalType": "uint256",
          "name": "",
          "type": "uint256"
        }
      ],
      "stateMutability": "view",
      "type": "function"
    },
    {
      "inputs": [],
      "name": "votingPeriod",
      "outputs": [
        {
          "internalType": "uint256",
          "name": "",
          "type": "uint256"
        }
      ],
      "stateMutability": "view",
      "type": "function"
    },
    {
      "stateMutability": "payable",
      "type": "receive"
    }
  ],
  "bytecode": "0x61018060405234801561001157600080fd5b50604051615cf9380380615cf983398101604081905261003091610736565b806004836201518062093a8060006040518060400160405280600a81526020016926bca3b7bb32b93737b960b11b8152508061007061017560201b60201c565b61007b826000610190565b6101205261008a816001610190565b61014052815160208084019190912060e052815190820120610100524660a05261011760e05161010051604080517f8b73c3c69bb8fe3d512ecc4cf759cc79239f7b179b0ffacaa9a75d522b39400f60208201529081019290925260608201524660808201523060a082015260009060c00160405160208183030381529060405280519060200120905090565b60805250503060c052600361012c828261080f565b506101389050836101c3565b61014182610229565b61014a816102cf565b5050506001600160a01b03166101605261016381610310565b5061016d816103a6565b505050610988565b6040805180820190915260018152603160f81b602082015290565b60006020835110156101ac576101a58361040f565b90506101bd565b816101b7848261080f565b5060ff90505b92915050565b6008546040805165ffffffffffff928316815291831660208301527fc565b045403dc03c2eea82b81a0465edad9e2e7fc4d97e11421c209da93d7a93910160405180910390a16008805465ffffffffffff191665ffffffffffff92909216919091179055565b8063ffffffff166000036102585760405163f1cfbf0560e01b8152600060048201526024015b60405180910390fd5b6008546040805163ffffffff66010000000000009093048316815291831660208301527f7e3f7f0708a84de9203036abaa450dccc85ad5ff52f78c170f3edb55cf5e8828910160405180910390a16008805463ffffffff90921666010000000000000263ffffffff60301b19909216919091179055565b60075460408051918252602082018390527fccb45da8d5717e6c4544694297c4ba5cf151d455c9bb0ed4fc7a38411bc05461910160405180910390a1600755565b60648082111561033d5760405163243e544560e01b8152600481018390526024810182905260440161024f565b600061034761044d565b9050610366610354610467565b61035d856104e2565b600c919061051a565b505060408051828152602081018590527f0553476bf02ef2726e8ce5ced78d63e26e602e4a2257b1f559418e24b4633997910160405180910390a1505050565b600d54604080516001600160a01b03928316815291831660208301527f08f74ea46ef7894f65eabfb5e6e695de773a000b47c529ab559178069b226401910160405180910390a1600d80546001600160a01b0319166001600160a01b0392909216919091179055565b600080829050601f8151111561043a578260405163305a27a960e01b815260040161024f91906108cd565b80516104458261091b565b179392505050565b6000610459600c610535565b6001600160d01b0316905090565b60006104736101605190565b6001600160a01b03166391ddadf46040518163ffffffff1660e01b8152600401602060405180830381865afa9250505080156104cc575060408051601f3d908101601f191682019092526104c99181019061093f565b60015b6104dd576104d8610580565b905090565b919050565b60006001600160d01b03821115610516576040516306dfcc6560e41b815260d060048201526024810183905260440161024f565b5090565b60008061052885858561058b565b915091505b935093915050565b805460009080156105765761055d8361054f600184610967565b600091825260209091200190565b54660100000000000090046001600160d01b0316610579565b60005b9392505050565b60006104d8436106eb565b82546000908190801561068d5760006105a98761054f600185610967565b805490915065ffffffffffff80821691660100000000000090046001600160d01b03169088168211156105ef57604051632520601d60e01b815260040160405180910390fd5b8765ffffffffffff168265ffffffffffff160361062b57825465ffffffffffff1666010000000000006001600160d01b0389160217835561067f565b6040805180820190915265ffffffffffff808a1682526001600160d01b03808a1660208085019182528d54600181018f5560008f815291909120945191519092166601000000000000029216919091179101555b945085935061052d92505050565b50506040805180820190915265ffffffffffff80851682526001600160d01b0380851660208085019182528854600181018a5560008a815291822095519251909316660100000000000002919093161792019190915590508161052d565b600065ffffffffffff821115610516576040516306dfcc6560e41b8152603060048201526024810183905260440161024f565b6001600160a01b038116811461073357600080fd5b50565b6000806040838503121561074957600080fd5b82516107548161071e565b60208401519092506107658161071e565b809150509250929050565b634e487b7160e01b600052604160045260246000fd5b600181811c9082168061079a57607f821691505b6020821081036107ba57634e487b7160e01b600052602260045260246000fd5b50919050565b601f82111561080a57806000526020600020601f840160051c810160208510156107e75750805b601f840160051c820191505b8181101561080757600081556001016107f3565b50505b505050565b81516001600160401b0381111561082857610828610770565b61083c816108368454610786565b846107c0565b6020601f82116001811461087057600083156108585750848201515b600019600385901b1c1916600184901b178455610807565b600084815260208120601f198516915b828110156108a05787850151825560209485019460019092019101610880565b50848210156108be5786840151600019600387901b60f8161c191681555b50505050600190811b01905550565b602081526000825180602084015260005b818110156108fb57602081860181015160408684010152016108de565b506000604082850101526040601f19601f83011684010191505092915050565b805160208083015191908110156107ba5760001960209190910360031b1b16919050565b60006020828403121561095157600080fd5b815165ffffffffffff8116811461057957600080fd5b818103818111156101bd57634e487b7160e01b600052601160045260246000fd5b60805160a05160c05160e051610100516101205161014051610160516152f0610a0960003960008181610b5f015281816113c0015281816118bb01528181611d350152612630015260006125fb015260006125ce01526000612f3001526000612f0801526000612e6301526000612e8d01526000612eb701526152f06000f3fe6080604052600436106103545760003560e01c80637ecebe00116101c6578063c28bc2fa116100f7578063e540d01d11610095578063f23a6e611161006f578063f23a6e6114610b10578063f8ce560a14610b30578063fc0c546a14610b50578063fe0d94c114610b8357600080fd5b8063e540d01d14610ab0578063eb9019d414610ad0578063ece40cc114610af057600080fd5b8063da35c664116100d1578063da35c66414610a01578063dd4e2ba514610a16578063ddf0b00914610a5c578063deaaa7cc14610a7c57600080fd5b8063c28bc2fa146109b0578063c59057e4146109c3578063d33219b4146109e357600080fd5b8063a890c91011610164578063ab58fb8e1161013e578063ab58fb8e14610923578063b58131b01461095b578063bc197c8114610970578063c01f9e371461099057600080fd5b8063a890c910146108c3578063a8f8a668146108e3578063a9a952941461090357600080fd5b806391ddadf4116101a057806391ddadf41461084e57806397c3d3341461087a5780639a802a6d1461088e578063a7713a70146108ae57600080fd5b80637ecebe00146107d057806384b0196e146108065780638ff262e31461082e57600080fd5b80633e4f49e6116102a0578063567813881161023e57806360c4247f1161021857806360c4247f1461075057806379051887146107705780637b3c71d3146107905780637d5e81e2146107b057600080fd5b806356781388146106f05780635b8d0e0d146107105780635f398a141461073057600080fd5b8063452115d61161027a578063452115d6146106565780634bf5d7e914610676578063544ffc9c1461068b57806354fd4d50146106c657600080fd5b80633e4f49e6146105bf57806340e58ee5146105ec578063438596321461060c57600080fd5b8063160cbed71161030d5780632d63f693116102e75780632d63f6931461051d5780632e82db941461053d5780632fe3e2611461056e5780633932abb1146105a257600080fd5b8063160cbed7146104ba57806316e9eaec146104da5780632656227d1461050a57600080fd5b806301ffc9a71461039057806302a251a3146103c557806306f3f9e6146103f157806306fdde0314610411578063143489d014610433578063150b7a021461048157600080fd5b3661038b5730610362610b96565b6001600160a01b03161461038957604051637485328f60e11b815260040160405180910390fd5b005b600080fd5b34801561039c57600080fd5b506103b06103ab36600461404f565b610baf565b60405190151581526020015b60405180910390f35b3480156103d157600080fd5b50600854600160301b900463ffffffff165b6040519081526020016103bc565b3480156103fd57600080fd5b5061038961040c366004614079565b610c1c565b34801561041d57600080fd5b50610426610c30565b6040516103bc91906140e2565b34801561043f57600080fd5b5061046961044e366004614079565b6000908152600460205260409020546001600160a01b031690565b6040516001600160a01b0390911681526020016103bc565b34801561048d57600080fd5b506104a161049c3660046141d5565b610cc2565b6040516001600160e01b031990911681526020016103bc565b3480156104c657600080fd5b506103e36104d53660046143aa565b610d05565b3480156104e657600080fd5b506104fa6104f5366004614079565b610dd4565b6040516103bc9493929190614516565b6103e36105183660046143aa565b610fde565b34801561052957600080fd5b506103e3610538366004614079565b61114a565b34801561054957600080fd5b5061055d610558366004614079565b61116b565b6040516103bc959493929190614561565b34801561057a57600080fd5b506103e37f3e83946653575f9a39005e1545185629e92736b7528ab20ca3816f315424a81181565b3480156105ae57600080fd5b5060085465ffffffffffff166103e3565b3480156105cb57600080fd5b506105df6105da366004614079565b6111ae565b6040516103bc91906145eb565b3480156105f857600080fd5b50610389610607366004614079565b6111b9565b34801561061857600080fd5b506103b06106273660046145f9565b60008281526009602090815260408083206001600160a01b038516845260030190915290205460ff1692915050565b34801561066257600080fd5b506103e36106713660046143aa565b61135a565b34801561068257600080fd5b506104266113bc565b34801561069757600080fd5b506106ab6106a6366004614079565b61147e565b604080519384526020840192909252908201526060016103bc565b3480156106d257600080fd5b506040805180820190915260018152603160f81b6020820152610426565b3480156106fc57600080fd5b506103e361070b36600461463a565b6114a4565b34801561071c57600080fd5b506103e361072b3660046146ae565b6114cd565b34801561073c57600080fd5b506103e361074b366004614772565b61162c565b34801561075c57600080fd5b506103e361076b366004614079565b611676565b34801561077c57600080fd5b5061038961078b36600461480d565b611683565b34801561079c57600080fd5b506103e36107ab36600461482a565b611694565b3480156107bc57600080fd5b506103e36107cb366004614883565b6116e6565b3480156107dc57600080fd5b506103e36107eb366004614947565b6001600160a01b031660009081526002602052604090205490565b34801561081257600080fd5b5061081b61179f565b6040516103bc9796959493929190614964565b34801561083a57600080fd5b506103e36108493660046149d4565b6117e5565b34801561085a57600080fd5b506108636118b7565b60405165ffffffffffff90911681526020016103bc565b34801561088657600080fd5b5060646103e3565b34801561089a57600080fd5b506103e36108a9366004614a25565b61193f565b3480156108ba57600080fd5b506103e3611956565b3480156108cf57600080fd5b506103896108de366004614947565b611970565b3480156108ef57600080fd5b506103e36108fe3660046143aa565b611981565b34801561090f57600080fd5b506103b061091e366004614079565b611998565b34801561092f57600080fd5b506103e361093e366004614079565b60009081526004602052604090206001015465ffffffffffff1690565b34801561096757600080fd5b506103e36119a1565b34801561097c57600080fd5b506104a161098b366004614a7d565b6119ac565b34801561099c57600080fd5b506103e36109ab366004614079565b6119f0565b6103896109be366004614b1b565b611a33565b3480156109cf57600080fd5b506103e36109de3660046143aa565b611ab3565b3480156109ef57600080fd5b50600d546001600160a01b0316610469565b348015610a0d57600080fd5b50600a546103e3565b348015610a2257600080fd5b506040805180820190915260208082527f737570706f72743d627261766f2671756f72756d3d666f722c6162737461696e90820152610426565b348015610a6857600080fd5b50610389610a77366004614079565b611aed565b348015610a8857600080fd5b506103e37ff2aad550cf55f045cb27e9c559f9889fdfb6e6cdaa032301d6ea397784ae51d781565b348015610abc57600080fd5b50610389610acb366004614b5e565b611c89565b348015610adc57600080fd5b506103e3610aeb366004614b84565b611c9a565b348015610afc57600080fd5b50610389610b0b366004614079565b611cbb565b348015610b1c57600080fd5b506104a1610b2b366004614bb0565b611ccc565b348015610b3c57600080fd5b506103e3610b4b366004614079565b611d10565b348015610b5c57600080fd5b507f0000000000000000000000000000000000000000000000000000000000000000610469565b610389610b91366004614079565b611db0565b6000610baa600d546001600160a01b031690565b905090565b60006001600160e01b031982166366defe7760e11b1480610be057506001600160e01b031982166332a2ad4360e11b145b80610bfb57506001600160e01b03198216630271189760e51b145b80610c1657506301ffc9a760e01b6001600160e01b03198316145b92915050565b610c24611f4c565b610c2d81611fc6565b50565b606060038054610c3f90614c0c565b80601f0160208091040260200160405190810160405280929190818152602001828054610c6b90614c0c565b8015610cb85780601f10610c8d57610100808354040283529160200191610cb8565b820191906000526020600020905b815481529060010190602001808311610c9b57829003601f168201915b5050505050905090565b600030610ccd610b96565b6001600160a01b031614610cf457604051637485328f60e11b815260040160405180910390fd5b50630a85bd0160e11b949350505050565b600080610d1486868686611981565b9050610d2981610d24600461205c565b61207f565b506000610d3982888888886120be565b905065ffffffffffff811615610db157600082815260046020908152604091829020600101805465ffffffffffff191665ffffffffffff85169081179091558251858152918201527f9a2e42fd6722813d69113e7d0079d3d940171428df7373df9c7f7617cfda2892910160405180910390a1610dca565b604051634844252360e11b815260040160405180910390fd5b5095945050505050565b6000818152600b602090815260408083208151815460a0948102820185019093526080810183815260609586958695919485949390928492849190840182828015610e4857602002820191906000526020600020905b81546001600160a01b03168152600190910190602001808311610e2a575b5050505050815260200160018201805480602002602001604051908101604052809291908181526020018280548015610ea057602002820191906000526020600020905b815481526020019060010190808311610e8c575b5050505050815260200160028201805480602002602001604051908101604052809291908181526020016000905b82821015610f7a578382906000526020600020018054610eed90614c0c565b80601f0160208091040260200160405190810160405280929190818152602001828054610f1990614c0c565b8015610f665780601f10610f3b57610100808354040283529160200191610f66565b820191906000526020600020905b815481529060010190602001808311610f4957829003601f168201915b505050505081526020019060010190610ece565b505050508152602001600382015481525050905080606001516000801b03610fbd57604051636ad0607560e01b8152600481018790526024015b60405180910390fd5b80516020820151604083015160609093015191989097509195509350915050565b600080610fed86868686611981565b905061100d81610ffd600561205c565b611007600461205c565b1761207f565b506000818152600460205260409020805460ff60f01b1916600160f01b17905530611036610b96565b6001600160a01b0316146110c05760005b86518110156110be57306001600160a01b031687828151811061106c5761106c614c46565b60200260200101516001600160a01b0316036110b6576110b685828151811061109757611097614c46565b60200260200101518051906020012060056120cd90919063ffffffff16565b600101611047565b505b6110cd818787878761212f565b306110d6610b96565b6001600160a01b03161415801561110257506005546001600160801b03808216600160801b9092041614155b1561110d5760006005555b6040518181527f712ae1383f79ac853f8d882153778e0260ef8f03b504e2866e0593e04d2b291f906020015b60405180910390a195945050505050565b600090815260046020526040902054600160a01b900465ffffffffffff1690565b600060608060606000600a868154811061118757611187614c46565b9060005260206000200154945061119d85610dd4565b979992985090969095509350915050565b6000610c1682612143565b6000818152600b602090815260409182902080548351818402810184019094528084529092611355929091849183018282801561121f57602002820191906000526020600020905b81546001600160a01b03168152600190910190602001808311611201575b50505050508260010180548060200260200160405190810160405280929190818152602001828054801561127257602002820191906000526020600020905b81548152602001906001019080831161125e575b505050505083600201805480602002602001604051908101604052809291908181526020016000905b828210156113475783829060005260206000200180546112ba90614c0c565b80601f01602080910402602001604051908101604052809291908181526020018280546112e690614c0c565b80156113335780601f1061130857610100808354040283529160200191611333565b820191906000526020600020905b81548152906001019060200180831161131657829003601f168201915b50505050508152602001906001019061129b565b50505050846003015461135a565b505050565b60008061136986868686611981565b9050336113768282612282565b6113a557604051638fe5d8a960e01b8152600481018390526001600160a01b0382166024820152604401610fb4565b6113b1878787876122c9565b979650505050505050565b60607f00000000000000000000000000000000000000000000000000000000000000006001600160a01b0316634bf5d7e96040518163ffffffff1660e01b8152600401600060405180830381865afa92505050801561143d57506040513d6000823e601f3d908101601f1916820160405261143a9190810190614c5c565b60015b611479575060408051808201909152601d81527f6d6f64653d626c6f636b6e756d6265722666726f6d3d64656661756c74000000602082015290565b919050565b6000818152600960205260409020805460018201546002909201549091905b9193909250565b6000803390506114c5848285604051806020016040528060008152506122d7565b949350505050565b6000806115b0876115aa7f3e83946653575f9a39005e1545185629e92736b7528ab20ca3816f315424a8118c8c8c6115228e6001600160a01b0316600090815260026020526040902080546001810190915590565b8d8d604051611532929190614cc9565b60405180910390208c8051906020012060405160200161158f9796959493929190968752602087019590955260ff9390931660408601526001600160a01b03919091166060850152608084015260a083015260c082015260e00190565b604051602081830303815290604052805190602001206122fa565b85612327565b9050806115db576040516394ab6c0760e01b81526001600160a01b0388166004820152602401610fb4565b61161f89888a89898080601f0160208091040260200160405190810160405280939291908181526020018383808284376000920191909152508b925061239b915050565b9998505050505050505050565b6000803390506113b187828888888080601f0160208091040260200160405190810160405280939291908181526020018383808284376000920191909152508a925061239b915050565b6000610c16600c8361247d565b61168b611f4c565b610c2d816124cc565b6000803390506116dc86828787878080601f0160208091040260200160405190810160405280939291908181526020018383808284376000920191909152506122d792505050565b9695505050505050565b6000336116f38184612532565b61171b5760405163d9b3955760e01b81526001600160a01b0382166004820152602401610fb4565b60006117256119a1565b9050801561179257600061175483600161173d6118b7565b6117479190614cef565b65ffffffffffff16611c9a565b90508181101561179057604051636121770b60e11b81526001600160a01b03841660048201526024810182905260448101839052606401610fb4565b505b6113b187878787866125b8565b6000606080600080600060606117b36125c7565b6117bb6125f4565b60408051600080825260208201909252600f60f81b9b939a50919850469750309650945092509050565b600080611871846115aa7ff2aad550cf55f045cb27e9c559f9889fdfb6e6cdaa032301d6ea397784ae51d789898961183a8b6001600160a01b0316600090815260026020526040902080546001810190915590565b60408051602081019690965285019390935260ff90911660608401526001600160a01b0316608083015260a082015260c00161158f565b90508061189c576040516394ab6c0760e01b81526001600160a01b0385166004820152602401610fb4565b6116dc868587604051806020016040528060008152506122d7565b60007f00000000000000000000000000000000000000000000000000000000000000006001600160a01b03166391ddadf46040518163ffffffff1660e01b8152600401602060405180830381865afa925050508015611933575060408051601f3d908101601f1916820190925261193091810190614d0d565b60015b61147957610baa612621565b600061194c84848461262c565b90505b9392505050565b6000611962600c6126c2565b6001600160d01b0316905090565b611978611f4c565b610c2d81612709565b600061198f85858585611ab3565b95945050505050565b60006001610c16565b6000610baa60075490565b6000306119b7610b96565b6001600160a01b0316146119de57604051637485328f60e11b815260040160405180910390fd5b5063bc197c8160e01b95945050505050565b600081815260046020526040812054611a2590600160d01b810463ffffffff1690600160a01b900465ffffffffffff16614d2a565b65ffffffffffff1692915050565b611a3b611f4c565b600080856001600160a01b0316858585604051611a59929190614cc9565b60006040518083038185875af1925050503d8060008114611a96576040519150601f19603f3d011682016040523d82523d6000602084013e611a9b565b606091505b5091509150611aaa8282612772565b50505050505050565b600084848484604051602001611acc9493929190614516565b60408051601f19818403018152919052805160209091012095945050505050565b6000818152600b6020908152604091829020805483518184028101840190945280845290926113559290918491830182828015611b5357602002820191906000526020600020905b81546001600160a01b03168152600190910190602001808311611b35575b505050505082600101805480602002602001604051908101604052809291908181526020018280548015611ba657602002820191906000526020600020905b815481526020019060010190808311611b92575b505050505083600201805480602002602001604051908101604052809291908181526020016000905b82821015611c7b578382906000526020600020018054611bee90614c0c565b80601f0160208091040260200160405190810160405280929190818152602001828054611c1a90614c0c565b8015611c675780601f10611c3c57610100808354040283529160200191611c67565b820191906000526020600020905b815481529060010190602001808311611c4a57829003601f168201915b505050505081526020019060010190611bcf565b505050508460030154610d05565b611c91611f4c565b610c2d8161278e565b600061194f8383611cb660408051602081019091526000815290565b61262c565b611cc3611f4c565b610c2d8161282c565b600030611cd7610b96565b6001600160a01b031614611cfe57604051637485328f60e11b815260040160405180910390fd5b5063f23a6e6160e01b95945050505050565b604051632394e7a360e21b815260048101829052600090610c16906001600160a01b037f00000000000000000000000000000000000000000000000000000000000000001690638e539e8c90602401602060405180830381865afa158015611d7c573d6000803e3d6000fd5b505050506040513d601f19601f82011682018060405250810190611da09190614d48565b611da984611676565b606461286d565b6000818152600b6020908152604091829020805483518184028101840190945280845290926113559290918491830182828015611e1657602002820191906000526020600020905b81546001600160a01b03168152600190910190602001808311611df8575b505050505082600101805480602002602001604051908101604052809291908181526020018280548015611e6957602002820191906000526020600020905b815481526020019060010190808311611e55575b505050505083600201805480602002602001604051908101604052809291908181526020016000905b82821015611f3e578382906000526020600020018054611eb190614c0c565b80601f0160208091040260200160405190810160405280929190818152602001828054611edd90614c0c565b8015611f2a5780601f10611eff57610100808354040283529160200191611f2a565b820191906000526020600020905b815481529060010190602001808311611f0d57829003601f168201915b505050505081526020019060010190611e92565b505050508460030154610fde565b33611f55610b96565b6001600160a01b031614611f7e576040516347096e4760e01b8152336004820152602401610fb4565b30611f87610b96565b6001600160a01b031614611fc45760008036604051611fa7929190614cc9565b604051809103902090505b80611fbd6005612922565b03611fb257505b565b606480821115611ff35760405163243e544560e01b81526004810183905260248101829052604401610fb4565b6000611ffd611956565b905061201c61200a6118b7565b61201385612991565b600c91906129c9565b505060408051828152602081018590527f0553476bf02ef2726e8ce5ced78d63e26e602e4a2257b1f559418e24b4633997910160405180910390a1505050565b6000816007811115612070576120706145b3565b600160ff919091161b92915050565b60008061208b846111ae565b90506000836120998361205c565b160361194f578381846040516331b75e4d60e01b8152600401610fb493929190614d61565b60006116dc86868686866129e4565b81546001600160801b03600160801b8204811691811660018301909116036120f9576120f96041612bd5565b6001600160801b03808216600090815260018086016020526040909120939093558354919092018216600160801b029116179055565b61213c8585858585612be7565b5050505050565b60008061214f83612c7d565b90506005816007811115612165576121656145b3565b146121705792915050565b6000838152600e60205260409081902054600d549151632c258a9f60e11b81526004810182905290916001600160a01b03169063584b153e90602401602060405180830381865afa1580156121c9573d6000803e3d6000fd5b505050506040513d601f19601f820116820180604052508101906121ed9190614d83565b156121fc575060059392505050565b600d54604051632ab0f52960e01b8152600481018390526001600160a01b0390911690632ab0f52990602401602060405180830381865afa158015612245573d6000803e3d6000fd5b505050506040513d601f19601f820116820180604052508101906122699190614d83565b15612278575060079392505050565b5060029392505050565b60008061228e846111ae565b600781111561229f5761229f6145b3565b14801561194f575050600091825260046020526040909120546001600160a01b0391821691161490565b600061198f85858585612db7565b600061198f858585856122f560408051602081019091526000815290565b61239b565b6000610c16612307612e56565b8360405161190160f01b8152600281019290925260228201526042902090565b6000836001600160a01b03163b600003612389576000806123488585612f81565b5090925090506000816003811115612362576123626145b3565b1480156123805750856001600160a01b0316826001600160a01b0316145b9250505061194f565b612394848484612fce565b905061194f565b60006123ab86610d24600161205c565b5060006123c1866123bb8961114a565b8561262c565b905060006123d288888885886130a9565b9050835160000361242957866001600160a01b03167fb8e138887d0aa13bab447e82de9d5c1777041ecd21ca36ba824ff1e6c07ddda48988848960405161241c9493929190614da5565b60405180910390a26113b1565b866001600160a01b03167fe2babfbac5889a709b63bb7f598b324e08bc5a4fb9ec647fb3cbc9ec07eb8712898884898960405161246a959493929190614dcd565b60405180910390a2979650505050505050565b600080600061248b856131ac565b9250925050838265ffffffffffff1611156124b8576124b36124ac85613208565b869061323b565b6124ba565b805b6001600160d01b031695945050505050565b6008546040805165ffffffffffff928316815291831660208301527fc565b045403dc03c2eea82b81a0465edad9e2e7fc4d97e11421c209da93d7a93910160405180910390a16008805465ffffffffffff191665ffffffffffff92909216919091179055565b8051600090603481101561254a576001915050610c16565b60131981840101516001600160b01b03198116692370726f706f7365723d60b01b1461257b57600192505050610c16565b60008061258c86602a8603866132e2565b915091508115806113b15750866001600160a01b0316816001600160a01b031614979650505050505050565b60006116dc8686868686613391565b6060610baa7f0000000000000000000000000000000000000000000000000000000000000000600061346c565b6060610baa7f0000000000000000000000000000000000000000000000000000000000000000600161346c565b6000610baa43613208565b60007f0000000000000000000000000000000000000000000000000000000000000000604051630748d63560e31b81526001600160a01b038681166004830152602482018690529190911690633a46b1a890604401602060405180830381865afa15801561269e573d6000803e3d6000fd5b505050506040513d601f19601f8201168201806040525081019061194c9190614d48565b80546000908015612700576126ea836126dc600184614e07565b600091825260209091200190565b54600160301b90046001600160d01b031661194f565b60009392505050565b600d54604080516001600160a01b03928316815291831660208301527f08f74ea46ef7894f65eabfb5e6e695de773a000b47c529ab559178069b226401910160405180910390a1600d80546001600160a01b0319166001600160a01b0392909216919091179055565b6060826127875761278282613517565b610c16565b5080610c16565b8063ffffffff166000036127b85760405163f1cfbf0560e01b815260006004820152602401610fb4565b6008546040805163ffffffff600160301b9093048316815291831660208301527f7e3f7f0708a84de9203036abaa450dccc85ad5ff52f78c170f3edb55cf5e8828910160405180910390a16008805463ffffffff909216600160301b0269ffffffff00000000000019909216919091179055565b60075460408051918252602082018390527fccb45da8d5717e6c4544694297c4ba5cf151d455c9bb0ed4fc7a38411bc05461910160405180910390a1600755565b600080600061287c8686613540565b91509150816000036128a15783818161289757612897614e1a565b049250505061194f565b8184116128b8576128b86003851502601118612bd5565b6000848688096000868103871696879004966002600389028118808a02820302808a02820302808a02820302808a02820302808a02820302808a02909103029181900381900460010185841190960395909502919093039390930492909217029150509392505050565b80546000906001600160801b0380821691600160801b900416810361294b5761294b6031612bd5565b6001600160801b038181166000908152600185810160205260408220805492905585546fffffffffffffffffffffffffffffffff19169301909116919091179092555090565b60006001600160d01b038211156129c5576040516306dfcc6560e41b815260d0600482015260248101839052604401610fb4565b5090565b6000806129d785858561355e565b915091505b935093915050565b600080600d60009054906101000a90046001600160a01b03166001600160a01b031663f27a0c926040518163ffffffff1660e01b8152600401602060405180830381865afa158015612a3a573d6000803e3d6000fd5b505050506040513d601f19601f82011682018060405250810190612a5e9190614d48565b9050612a8260405180606001604052806031815260200161526360319139826136b2565b600d5460405163b1c5f42760e01b81526bffffffffffffffffffffffff193060601b168518916001600160a01b03169063b1c5f42790612acf908a908a908a906000908890600401614e30565b602060405180830381865afa158015612aec573d6000803e3d6000fd5b505050506040513d601f19601f82011682018060405250810190612b109190614d48565b600e60008a815260200190815260200160002081905550612b48604051806060016040528060278152602001615294602791396136fb565b600d546040516308f2a0bb60e41b81526001600160a01b0390911690638f2a0bb090612b83908a908a908a9060009088908a90600401614e7e565b600060405180830381600087803b158015612b9d57600080fd5b505af1158015612bb1573d6000803e3d6000fd5b50505050612bc98242612bc49190614ed6565b613208565b98975050505050505050565b634e487b71600052806020526024601cfd5b600d546001600160a01b031663e38335e53486868660003060601b6bffffffffffffffffffffffff191688186040518763ffffffff1660e01b8152600401612c33959493929190614e30565b6000604051808303818588803b158015612c4c57600080fd5b505af1158015612c60573d6000803e3d6000fd5b50505060009687525050600e602052505060408320929092555050565b6000818152600460205260408120805460ff600160f01b8204811691600160f81b9004168115612cb257506007949350505050565b8015612cc357506002949350505050565b6000612cce8661114a565b905080600003612cf457604051636ad0607560e01b815260048101879052602401610fb4565b6000612cfe6118b7565b65ffffffffffff169050808210612d1c575060009695505050505050565b6000612d27886119f0565b9050818110612d3e57506001979650505050505050565b612d478861373e565b1580612d6757506000888152600960205260409020805460019091015411155b15612d7a57506003979650505050505050565b60008881526004602052604090206001015465ffffffffffff16600003612da957506004979650505050505050565b506005979650505050505050565b600080612dc686868686613775565b6000818152600e60205260409020549091508015610dca57600d5460405163c4d252f560e01b8152600481018390526001600160a01b039091169063c4d252f590602401600060405180830381600087803b158015612e2457600080fd5b505af1158015612e38573d6000803e3d6000fd5b5050506000838152600e602052604081205550509050949350505050565b6000306001600160a01b037f000000000000000000000000000000000000000000000000000000000000000016148015612eaf57507f000000000000000000000000000000000000000000000000000000000000000046145b15612ed957507f000000000000000000000000000000000000000000000000000000000000000090565b610baa604080517f8b73c3c69bb8fe3d512ecc4cf759cc79239f7b179b0ffacaa9a75d522b39400f60208201527f0000000000000000000000000000000000000000000000000000000000000000918101919091527f000000000000000000000000000000000000000000000000000000000000000060608201524660808201523060a082015260009060c00160405160208183030381529060405280519060200120905090565b60008060008351604103612fbb5760208401516040850151606086015160001a612fad88828585613826565b955095509550505050612fc7565b50508151600091506002905b9250925092565b6000806000856001600160a01b03168585604051602401612ff0929190614ee9565b60408051601f198184030181529181526020820180516001600160e01b0316630b135d3f60e11b179052516130259190614f02565b600060405180830381855afa9150503d8060008114613060576040519150601f19603f3d011682016040523d82523d6000602084013e613065565b606091505b509150915081801561307957506020815110155b80156116dc57508051630b135d3f60e11b9061309e9083016020908101908401614d48565b149695505050505050565b60008581526009602090815260408083206001600160a01b03881684526003810190925282205460ff16156130fc576040516371c6af4960e01b81526001600160a01b0387166004820152602401610fb4565b6001600160a01b03861660009081526003820160205260409020805460ff1916600117905560ff8516613148578381600001600082825461313d9190614ed6565b909155506131a19050565b60001960ff861601613168578381600101600082825461313d9190614ed6565b60011960ff861601613188578381600201600082825461313d9190614ed6565b6040516303599be160e11b815260040160405180910390fd5b509195945050505050565b8054600090819081908082036131cd5760008060009350935093505061149d565b60006131de866126dc600185614e07565b546001955065ffffffffffff81169450600160301b90046001600160d01b0316925061149d915050565b600065ffffffffffff8211156129c5576040516306dfcc6560e41b81526030600482015260248101839052604401610fb4565b81546000908181600581111561329a576000613256846138f5565b6132609085614e07565b60008881526020902090915081015465ffffffffffff908116908716101561328a57809150613298565b613295816001614ed6565b92505b505b60006132a887878585613a4e565b905080156132d5576132bf876126dc600184614e07565b54600160301b90046001600160d01b03166113b1565b5060009695505050505050565b60008084518311806132f357508284115b15613303575060009050806129dc565b6000613310856001614ed6565b84118015613338575061060f60f31b61332c8787016020015190565b6001600160f01b031916145b905060006133498215156002614f1e565b613354906028614ed6565b9050806133618787614e07565b0361338357600080613374898989613ab0565b90965094506129dc9350505050565b6000809350935050506129dc565b6000806133a18787878787613b76565b600a805460018101825560009182527fc65a7bb8d6351c1cf70c95a316cc6a92839c986682d98bc35f958f4883f9d2a801829055604080516080810182528a815260208181018b90528183018a90528851898201206060830152848452600b815291909220825180519495509293909261341f928492910190613ef5565b5060208281015180516134389260018501920190613f56565b5060408201518051613454916002840191602090910190613f91565b50606091909101516003909101559695505050505050565b606060ff83146134865761347f83613d9f565b9050610c16565b81805461349290614c0c565b80601f01602080910402602001604051908101604052809291908181526020018280546134be90614c0c565b801561350b5780601f106134e05761010080835404028352916020019161350b565b820191906000526020600020905b8154815290600101906020018083116134ee57829003601f168201915b50505050509050610c16565b8051156135275780518082602001fd5b60405163d6bda27560e01b815260040160405180910390fd5b60008060001983850993909202808410938190039390930393915050565b82546000908190801561365757600061357c876126dc600185614e07565b805490915065ffffffffffff80821691600160301b90046001600160d01b03169088168211156135bf57604051632520601d60e01b815260040160405180910390fd5b8765ffffffffffff168265ffffffffffff16036135f857825465ffffffffffff16600160301b6001600160d01b03891602178355613649565b6040805180820190915265ffffffffffff808a1682526001600160d01b03808a1660208085019182528d54600181018f5560008f81529190912094519151909216600160301b029216919091179101555b94508593506129dc92505050565b50506040805180820190915265ffffffffffff80851682526001600160d01b0380851660208085019182528854600181018a5560008a815291822095519251909316600160301b0291909316179201919091559050816129dc565b6136f782826040516024016136c8929190614f35565b60408051601f198184030181529190526020810180516001600160e01b0316632d839cb360e21b179052613dde565b5050565b610c2d8160405160240161370f91906140e2565b60408051601f198184030181529190526020810180516001600160e01b031663104c13eb60e21b179052613dde565b6000818152600960205260408120600281015460018201546137609190614ed6565b61376c610b4b8561114a565b11159392505050565b60008061378486868686611981565b90506137d281613794600761205c565b61379e600661205c565b6137a8600261205c565b60016137b5600782614f57565b6137c090600261504f565b6137ca9190614e07565b18181861207f565b506000818152600460205260409081902080546001600160f81b0316600160f81b179055517f789cf55be980739dad1d0699b93b58e806b51c9d96619bfa8fe0a28abaa7b30c906111399083815260200190565b600080807f7fffffffffffffffffffffffffffffff5d576e7357a4501ddfe92f46681b20a084111561386157506000915060039050826138eb565b604080516000808252602082018084528a905260ff891692820192909252606081018790526080810186905260019060a0016020604051602081039080840390855afa1580156138b5573d6000803e3d6000fd5b5050604051601f1901519150506001600160a01b0381166138e1575060009250600191508290506138eb565b9250600091508190505b9450945094915050565b600060018211613903575090565b816001600160801b821061391c5760809190911c9060401b5b6801000000000000000082106139375760409190911c9060201b5b640100000000821061394e5760209190911c9060101b5b6201000082106139635760109190911c9060081b5b61010082106139775760089190911c9060041b5b6010821061398a5760049190911c9060021b5b600482106139965760011b5b600302600190811c908185816139ae576139ae614e1a565b048201901c905060018185816139c6576139c6614e1a565b048201901c905060018185816139de576139de614e1a565b048201901c905060018185816139f6576139f6614e1a565b048201901c90506001818581613a0e57613a0e614e1a565b048201901c90506001818581613a2657613a26614e1a565b048201901c9050613a45818581613a3f57613a3f614e1a565b04821190565b90039392505050565b60005b81831015613aa8576000613a658484613de7565b60008781526020902090915065ffffffffffff86169082015465ffffffffffff161115613a9457809250613aa2565b613a9f816001614ed6565b93505b50613a51565b509392505050565b6000808481613ac0866001614ed6565b85118015613ae8575061060f60f31b613adc8388016020015190565b6001600160f01b031916145b90506000613af98215156002614f1e565b9050600080613b08838a614ed6565b90505b87811015613b65576000613b2a613b258784016020015190565b613e02565b9050600f8160ff161115613b4a57600080975097505050505050506129dc565b613b55601084614f1e565b60ff909116019150600101613b0b565b506001999098509650505050505050565b6000613b8b8686868680519060200120611981565b905084518651141580613ba057508351865114155b80613baa57508551155b15613bdf57855184518651604051630447b05d60e41b8152600481019390935260248301919091526044820152606401610fb4565b600081815260046020526040902054600160a01b900465ffffffffffff1615613c2a5780613c0c826111ae565b6040516331b75e4d60e01b8152610fb4929190600090600401614d61565b6000613c3d60085465ffffffffffff1690565b613c456118b7565b65ffffffffffff16613c579190614ed6565b90506000613c7260085463ffffffff600160301b9091041690565b600084815260046020526040902080546001600160a01b0319166001600160a01b038716178155909150613ca583613208565b815465ffffffffffff91909116600160a01b0265ffffffffffff60a01b19909116178155613cd282613e7b565b815463ffffffff91909116600160d01b0263ffffffff60d01b1990911617815588517f7d84a6263ae0d98d3329bd7b46bb4e8d6f98cd35a7adb45c274c8b7fd5ebd5e090859087908c908c906001600160401b03811115613d3557613d3561410a565b604051908082528060200260200182016040528015613d6857816020015b6060815260200190600190039081613d535790505b508c89613d758a82614ed6565b8e604051613d8b9998979695949392919061505e565b60405180910390a150505095945050505050565b60606000613dac83613eac565b604080516020808252818301909252919250600091906020820181803683375050509182525060208101929092525090565b610c2d81613ed4565b6000613df6600284841861513b565b61194f90848416614ed6565b600060f882901c602f81118015613e1c5750603a8160ff16105b15613e2a57602f1901610c16565b60608160ff16118015613e40575060678160ff16105b15613e4e5760561901610c16565b60408160ff16118015613e64575060478160ff16105b15613e725760361901610c16565b5060ff92915050565b600063ffffffff8211156129c5576040516306dfcc6560e41b81526020600482015260248101839052604401610fb4565b600060ff8216601f811115610c1657604051632cd44ac360e21b815260040160405180910390fd5b60006a636f6e736f6c652e6c6f679050600080835160208501845afa505050565b828054828255906000526020600020908101928215613f4a579160200282015b82811115613f4a57825182546001600160a01b0319166001600160a01b03909116178255602090920191600190910190613f15565b506129c5929150613fe3565b828054828255906000526020600020908101928215613f4a579160200282015b82811115613f4a578251825591602001919060010190613f76565b828054828255906000526020600020908101928215613fd7579160200282015b82811115613fd75782518290613fc790826151a4565b5091602001919060010190613fb1565b506129c5929150613ff8565b5b808211156129c55760008155600101613fe4565b808211156129c557600061400c8282614015565b50600101613ff8565b50805461402190614c0c565b6000825580601f10614031575050565b601f016020900490600052602060002090810190610c2d9190613fe3565b60006020828403121561406157600080fd5b81356001600160e01b03198116811461194f57600080fd5b60006020828403121561408b57600080fd5b5035919050565b60005b838110156140ad578181015183820152602001614095565b50506000910152565b600081518084526140ce816020860160208601614092565b601f01601f19169290920160200192915050565b60208152600061194f60208301846140b6565b6001600160a01b0381168114610c2d57600080fd5b634e487b7160e01b600052604160045260246000fd5b604051601f8201601f191681016001600160401b03811182821017156141485761414861410a565b604052919050565b60006001600160401b038211156141695761416961410a565b50601f01601f191660200190565b600061418a61418584614150565b614120565b905082815283838301111561419e57600080fd5b828260208301376000602084830101529392505050565b600082601f8301126141c657600080fd5b61194f83833560208501614177565b600080600080608085870312156141eb57600080fd5b84356141f6816140f5565b93506020850135614206816140f5565b92506040850135915060608501356001600160401b0381111561422857600080fd5b614234878288016141b5565b91505092959194509250565b60006001600160401b038211156142595761425961410a565b5060051b60200190565b600082601f83011261427457600080fd5b813561428261418582614240565b8082825260208201915060208360051b8601019250858311156142a457600080fd5b602085015b83811015610dca5780356142bc816140f5565b8352602092830192016142a9565b600082601f8301126142db57600080fd5b81356142e961418582614240565b8082825260208201915060208360051b86010192508583111561430b57600080fd5b602085015b83811015610dca578035835260209283019201614310565b600082601f83011261433957600080fd5b813561434761418582614240565b8082825260208201915060208360051b86010192508583111561436957600080fd5b602085015b83811015610dca5780356001600160401b0381111561438c57600080fd5b61439b886020838a01016141b5565b8452506020928301920161436e565b600080600080608085870312156143c057600080fd5b84356001600160401b038111156143d657600080fd5b6143e287828801614263565b94505060208501356001600160401b038111156143fe57600080fd5b61440a878288016142ca565b93505060408501356001600160401b0381111561442657600080fd5b61443287828801614328565b949793965093946060013593505050565b600081518084526020840193506020830160005b8281101561447e5781516001600160a01b0316865260209586019590910190600101614457565b5093949350505050565b600081518084526020840193506020830160005b8281101561447e57815186526020958601959091019060010161449c565b600082825180855260208501945060208160051b8301016020850160005b8381101561450a57601f198584030188526144f48383516140b6565b60209889019890935091909101906001016144d8565b50909695505050505050565b6080815260006145296080830187614443565b828103602084015261453b8187614488565b9050828103604084015261454f81866144ba565b91505082606083015295945050505050565b85815260a06020820152600061457a60a0830187614443565b828103604084015261458c8187614488565b905082810360608401526145a081866144ba565b9150508260808301529695505050505050565b634e487b7160e01b600052602160045260246000fd5b600881106145e757634e487b7160e01b600052602160045260246000fd5b9052565b60208101610c1682846145c9565b6000806040838503121561460c57600080fd5b82359150602083013561461e816140f5565b809150509250929050565b803560ff8116811461147957600080fd5b6000806040838503121561464d57600080fd5b8235915061465d60208401614629565b90509250929050565b60008083601f84011261467857600080fd5b5081356001600160401b0381111561468f57600080fd5b6020830191508360208285010111156146a757600080fd5b9250929050565b600080600080600080600060c0888a0312156146c957600080fd5b873596506146d960208901614629565b955060408801356146e9816140f5565b945060608801356001600160401b0381111561470457600080fd5b6147108a828b01614666565b90955093505060808801356001600160401b0381111561472f57600080fd5b61473b8a828b016141b5565b92505060a08801356001600160401b0381111561475757600080fd5b6147638a828b016141b5565b91505092959891949750929550565b60008060008060006080868803121561478a57600080fd5b8535945061479a60208701614629565b935060408601356001600160401b038111156147b557600080fd5b6147c188828901614666565b90945092505060608601356001600160401b038111156147e057600080fd5b6147ec888289016141b5565b9150509295509295909350565b65ffffffffffff81168114610c2d57600080fd5b60006020828403121561481f57600080fd5b813561194f816147f9565b6000806000806060858703121561484057600080fd5b8435935061485060208601614629565b925060408501356001600160401b0381111561486b57600080fd5b61487787828801614666565b95989497509550505050565b6000806000806080858703121561489957600080fd5b84356001600160401b038111156148af57600080fd5b6148bb87828801614263565b94505060208501356001600160401b038111156148d757600080fd5b6148e3878288016142ca565b93505060408501356001600160401b038111156148ff57600080fd5b61490b87828801614328565b92505060608501356001600160401b0381111561492757600080fd5b8501601f8101871361493857600080fd5b61423487823560208401614177565b60006020828403121561495957600080fd5b813561194f816140f5565b60ff60f81b8816815260e06020820152600061498360e08301896140b6565b828103604084015261499581896140b6565b606084018890526001600160a01b038716608085015260a0840186905283810360c085015290506149c68185614488565b9a9950505050505050505050565b600080600080608085870312156149ea57600080fd5b843593506149fa60208601614629565b92506040850135614a0a816140f5565b915060608501356001600160401b0381111561422857600080fd5b600080600060608486031215614a3a57600080fd5b8335614a45816140f5565b92506020840135915060408401356001600160401b03811115614a6757600080fd5b614a73868287016141b5565b9150509250925092565b600080600080600060a08688031215614a9557600080fd5b8535614aa0816140f5565b94506020860135614ab0816140f5565b935060408601356001600160401b03811115614acb57600080fd5b614ad7888289016142ca565b93505060608601356001600160401b03811115614af357600080fd5b614aff888289016142ca565b92505060808601356001600160401b038111156147e057600080fd5b60008060008060608587031215614b3157600080fd5b8435614b3c816140f5565b93506020850135925060408501356001600160401b0381111561486b57600080fd5b600060208284031215614b7057600080fd5b813563ffffffff8116811461194f57600080fd5b60008060408385031215614b9757600080fd5b8235614ba2816140f5565b946020939093013593505050565b600080600080600060a08688031215614bc857600080fd5b8535614bd3816140f5565b94506020860135614be3816140f5565b9350604086013592506060860135915060808601356001600160401b038111156147e057600080fd5b600181811c90821680614c2057607f821691505b602082108103614c4057634e487b7160e01b600052602260045260246000fd5b50919050565b634e487b7160e01b600052603260045260246000fd5b600060208284031215614c6e57600080fd5b81516001600160401b03811115614c8457600080fd5b8201601f81018413614c9557600080fd5b8051614ca361418582614150565b818152856020838501011115614cb857600080fd5b61198f826020830160208601614092565b8183823760009101908152919050565b634e487b7160e01b600052601160045260246000fd5b65ffffffffffff8281168282160390811115610c1657610c16614cd9565b600060208284031215614d1f57600080fd5b815161194f816147f9565b65ffffffffffff8181168382160190811115610c1657610c16614cd9565b600060208284031215614d5a57600080fd5b5051919050565b83815260608101614d7560208301856145c9565b826040830152949350505050565b600060208284031215614d9557600080fd5b8151801515811461194f57600080fd5b84815260ff841660208201528260408201526080606082015260006116dc60808301846140b6565b85815260ff8516602082015283604082015260a060608201526000614df560a08301856140b6565b8281036080840152612bc981856140b6565b81810381811115610c1657610c16614cd9565b634e487b7160e01b600052601260045260246000fd5b60a081526000614e4360a0830188614443565b8281036020840152614e558188614488565b90508281036040840152614e6981876144ba565b60608401959095525050608001529392505050565b60c081526000614e9160c0830189614443565b8281036020840152614ea38189614488565b90508281036040840152614eb781886144ba565b60608401969096525050608081019290925260a0909101529392505050565b80820180821115610c1657610c16614cd9565b82815260406020820152600061194c60408301846140b6565b60008251614f14818460208701614092565b9190910192915050565b8082028115828204841417610c1657610c16614cd9565b604081526000614f4860408301856140b6565b90508260208301529392505050565b60ff8181168382160190811115610c1657610c16614cd9565b6001815b60018411156129dc57808504811115614f8f57614f8f614cd9565b6001841615614f9d57908102905b60019390931c928002614f74565b600082614fba57506001610c16565b81614fc757506000610c16565b8160018114614fdd5760028114614fe757615003565b6001915050610c16565b60ff841115614ff857614ff8614cd9565b50506001821b610c16565b5060208310610133831016604e8410600b8410161715615026575081810a610c16565b6150336000198484614f70565b806000190482111561504757615047614cd9565b029392505050565b600061194f60ff841683614fab565b8981526001600160a01b0389166020820152610120604082018190526000906150899083018a614443565b828103606084015261509b818a614488565b9050828103608084015280885180835260208301915060208160051b84010160208b0160005b838110156150f357601f198684030185526150dd8383516140b6565b60209586019590935091909101906001016150c1565b505085810360a0870152615107818b6144ba565b93505050508560c08401528460e084015282810361010084015261512b81856140b6565b9c9b505050505050505050505050565b60008261515857634e487b7160e01b600052601260045260246000fd5b500490565b601f82111561135557806000526020600020601f840160051c810160208510156151845750805b601f840160051c820191505b8181101561213c5760008155600101615190565b81516001600160401b038111156151bd576151bd61410a565b6151d1816151cb8454614c0c565b8461515d565b6020601f82116001811461520557600083156151ed5750848201515b600019600385901b1c1916600184901b17845561213c565b600084815260208120601f198516915b828110156152355787850151825560209485019460019092019101615215565b50848210156152535786840151600019600387901b60f8161c191681555b50505050600190811b0190555056fe476f7665726e6f7254696d656c6f636b436f6e74726f6c3a5f71756575654f7065726174696f6e73203d3e2064656c6179776f726b656420756e74696c6c2068617368206f7065726174696f6e2062617463682e2e2e2e2ea264697066735822122006ea9cd9e09f453a8894d875992834d3e044a674ff5918cddd4f2b2712ec853364736f6c634300081b0033",
  "linkReferences": {},
  "deployedLinkReferences": {}
}