{
  "_format": "hh-sol-artifact-1",
  "contractName": "MyToken",
  "sourceName": "contracts/MyToken.sol",
  "abi": [
    {
      "inputs": [],
      "stateMutability": "nonpayable",
      "type": "constructor"
    },
    {
      "inputs": [],
      "name": "CheckpointUnorderedInsertion",
      "type": "error"
    },
    {
      "inputs": [],
      "name": "ECDSAInvalidSignature",
      "type": "error"
    },
    {
      "inputs": [
        {
          "internalType": "uint256",
          "name": "length",
          "type": "uint256"
        }
      ],
      "name": "ECDSAInvalidSignatureLength",
      "type": "error"
    },
    {
      "inputs": [
        {
          "internalType": "bytes32",
          "name": "s",
          "type": "bytes32"
        }
      ],
      "name": "ECDSAInvalidSignatureS",
      "type": "error"
    },
    {
      "inputs": [
        {
          "internalType": "uint256",
          "name": "increasedSupply",
          "type": "uint256"
        },
        {
          "internalType": "uint256",
          "name": "cap",
          "type": "uint256"
        }
      ],
      "name": "ERC20ExceededSafeSupply",
      "type": "error"
    },
    {
      "inputs": [
        {
          "internalType": "address",
          "name": "spender",
          "type": "address"
        },
        {
          "internalType": "uint256",
          "name": "allowance",
          "type": "uint256"
        },
        {
          "internalType": "uint256",
          "name": "needed",
          "type": "uint256"
        }
      ],
      "name": "ERC20InsufficientAllowance",
      "type": "error"
    },
    {
      "inputs": [
        {
          "internalType": "address",
          "name": "sender",
          "type": "address"
        },
        {
          "internalType": "uint256",
          "name": "balance",
          "type": "uint256"
        },
        {
          "internalType": "uint256",
          "name": "needed",
          "type": "uint256"
        }
      ],
      "name": "ERC20InsufficientBalance",
      "type": "error"
    },
    {
      "inputs": [
        {
          "internalType": "address",
          "name": "approver",
          "type": "address"
        }
      ],
      "name": "ERC20InvalidApprover",
      "type": "error"
    },
    {
      "inputs": [
        {
          "internalType": "address",
          "name": "receiver",
          "type": "address"
        }
      ],
      "name": "ERC20InvalidReceiver",
      "type": "error"
    },
    {
      "inputs": [
        {
          "internalType": "address",
          "name": "sender",
          "type": "address"
        }
      ],
      "name": "ERC20InvalidSender",
      "type": "error"
    },
    {
      "inputs": [
        {
          "internalType": "address",
          "name": "spender",
          "type": "address"
        }
      ],
      "name": "ERC20InvalidSpender",
      "type": "error"
    },
    {
      "inputs": [
        {
          "internalType": "uint256",
          "name": "deadline",
          "type": "uint256"
        }
      ],
      "name": "ERC2612ExpiredSignature",
      "type": "error"
    },
    {
      "inputs": [
        {
          "internalType": "address",
          "name": "signer",
          "type": "address"
        },
        {
          "internalType": "address",
          "name": "owner",
          "type": "address"
        }
      ],
      "name": "ERC2612InvalidSigner",
      "type": "error"
    },
    {
      "inputs": [
        {
          "internalType": "uint256",
          "name": "timepoint",
          "type": "uint256"
        },
        {
          "internalType": "uint48",
          "name": "clock",
          "type": "uint48"
        }
      ],
      "name": "ERC5805FutureLookup",
      "type": "error"
    },
    {
      "inputs": [],
      "name": "ERC6372InconsistentClock",
      "type": "error"
    },
    {
      "inputs": [
        {
          "internalType": "address",
          "name": "account",
          "type": "address"
        },
        {
          "internalType": "uint256",
          "name": "currentNonce",
          "type": "uint256"
        }
      ],
      "name": "InvalidAccountNonce",
      "type": "error"
    },
    {
      "inputs": [],
      "name": "InvalidShortString",
      "type": "error"
    },
    {
      "inputs": [
        {
          "internalType": "address",
          "name": "owner",
          "type": "address"
        }
      ],
      "name": "OwnableInvalidOwner",
      "type": "error"
    },
    {
      "inputs": [
        {
          "internalType": "address",
          "name": "account",
          "type": "address"
        }
      ],
      "name": "OwnableUnauthorizedAccount",
      "type": "error"
    },
    {
      "inputs": [
        {
          "internalType": "uint8",
          "name": "bits",
          "type": "uint8"
        },
        {
          "internalType": "uint256",
          "name": "value",
          "type": "uint256"
        }
      ],
      "name": "SafeCastOverflowedUintDowncast",
      "type": "error"
    },
    {
      "inputs": [
        {
          "internalType": "string",
          "name": "str",
          "type": "string"
        }
      ],
      "name": "StringTooLong",
      "type": "error"
    },
    {
      "inputs": [
        {
          "internalType": "uint256",
          "name": "expiry",
          "type": "uint256"
        }
      ],
      "name": "VotesExpiredSignature",
      "type": "error"
    },
    {
      "anonymous": false,
      "inputs": [
        {
          "indexed": true,
          "internalType": "address",
          "name": "owner",
          "type": "address"
        },
        {
          "indexed": true,
          "internalType": "address",
          "name": "spender",
          "type": "address"
        },
        {
          "indexed": false,
          "internalType": "uint256",
          "name": "value",
          "type": "uint256"
        }
      ],
      "name": "Approval",
      "type": "event"
    },
    {
      "anonymous": false,
      "inputs": [
        {
          "indexed": true,
          "internalType": "address",
          "name": "delegator",
          "type": "address"
        },
        {
          "indexed": true,
          "internalType": "address",
          "name": "fromDelegate",
          "type": "address"
        },
        {
          "indexed": true,
          "internalType": "address",
          "name": "toDelegate",
          "type": "address"
        }
      ],
      "name": "DelegateChanged",
      "type": "event"
    },
    {
      "anonymous": false,
      "inputs": [
        {
          "indexed": true,
          "internalType": "address",
          "name": "delegate",
          "type": "address"
        },
        {
          "indexed": false,
          "internalType": "uint256",
          "name": "previousVotes",
          "type": "uint256"
        },
        {
          "indexed": false,
          "internalType": "uint256",
          "name": "newVotes",
          "type": "uint256"
        }
      ],
      "name": "DelegateVotesChanged",
      "type": "event"
    },
    {
      "anonymous": false,
      "inputs": [],
      "name": "EIP712DomainChanged",
      "type": "event"
    },
    {
      "anonymous": false,
      "inputs": [
        {
          "indexed": true,
          "internalType": "address",
          "name": "previousOwner",
          "type": "address"
        },
        {
          "indexed": true,
          "internalType": "address",
          "name": "newOwner",
          "type": "address"
        }
      ],
      "name": "OwnershipTransferred",
      "type": "event"
    },
    {
      "anonymous": false,
      "inputs": [
        {
          "indexed": true,
          "internalType": "address",
          "name": "from",
          "type": "address"
        },
        {
          "indexed": true,
          "internalType": "address",
          "name": "to",
          "type": "address"
        },
        {
          "indexed": false,
          "internalType": "uint256",
          "name": "value",
          "type": "uint256"
        }
      ],
      "name": "Transfer",
      "type": "event"
    },
    {
      "inputs": [],
      "name": "CLOCK_MODE",
      "outputs": [
        {
          "internalType": "string",
          "name": "",
          "type": "string"
        }
      ],
      "stateMutability": "pure",
      "type": "function"
    },
    {
      "inputs": [],
      "name": "DOMAIN_SEPARATOR",
      "outputs": [
        {
          "internalType": "bytes32",
          "name": "",
          "type": "bytes32"
        }
      ],
      "stateMutability": "view",
      "type": "function"
    },
    {
      "inputs": [
        {
          "internalType": "address",
          "name": "owner",
          "type": "address"
        },
        {
          "internalType": "address",
          "name": "spender",
          "type": "address"
        }
      ],
      "name": "allowance",
      "outputs": [
        {
          "internalType": "uint256",
          "name": "",
          "type": "uint256"
        }
      ],
      "stateMutability": "view",
      "type": "function"
    },
    {
      "inputs": [
        {
          "internalType": "address",
          "name": "spender",
          "type": "address"
        },
        {
          "internalType": "uint256",
          "name": "value",
          "type": "uint256"
        }
      ],
      "name": "approve",
      "outputs": [
        {
          "internalType": "bool",
          "name": "",
          "type": "bool"
        }
      ],
      "stateMutability": "nonpayable",
      "type": "function"
    },
    {
      "inputs": [
        {
          "internalType": "address",
          "name": "account",
          "type": "address"
        }
      ],
      "name": "balanceOf",
      "outputs": [
        {
          "internalType": "uint256",
          "name": "",
          "type": "uint256"
        }
      ],
      "stateMutability": "view",
      "type": "function"
    },
    {
      "inputs": [
        {
          "internalType": "address",
          "name": "account",
          "type": "address"
        },
        {
          "internalType": "uint32",
          "name": "pos",
          "type": "uint32"
        }
      ],
      "name": "checkpoints",
      "outputs": [
        {
          "components": [
            {
              "internalType": "uint48",
              "name": "_key",
              "type": "uint48"
            },
            {
              "internalType": "uint208",
              "name": "_value",
              "type": "uint208"
            }
          ],
          "internalType": "struct Checkpoints.Checkpoint208",
          "name": "",
          "type": "tuple"
        }
      ],
      "stateMutability": "view",
      "type": "function"
    },
    {
      "inputs": [],
      "name": "clock",
      "outputs": [
        {
          "internalType": "uint48",
          "name": "",
          "type": "uint48"
        }
      ],
      "stateMutability": "view",
      "type": "function"
    },
    {
      "inputs": [],
      "name": "decimals",
      "outputs": [
        {
          "internalType": "uint8",
          "name": "",
          "type": "uint8"
        }
      ],
      "stateMutability": "view",
      "type": "function"
    },
    {
      "inputs": [
        {
          "internalType": "address",
          "name": "delegatee",
          "type": "address"
        }
      ],
      "name": "delegate",
      "outputs": [],
      "stateMutability": "nonpayable",
      "type": "function"
    },
    {
      "inputs": [
        {
          "internalType": "address",
          "name": "delegatee",
          "type": "address"
        },
        {
          "internalType": "uint256",
          "name": "nonce",
          "type": "uint256"
        },
        {
          "internalType": "uint256",
          "name": "expiry",
          "type": "uint256"
        },
        {
          "internalType": "uint8",
          "name": "v",
          "type": "uint8"
        },
        {
          "internalType": "bytes32",
          "name": "r",
          "type": "bytes32"
        },
        {
          "internalType": "bytes32",
          "name": "s",
          "type": "bytes32"
        }
      ],
      "name": "delegateBySig",
      "outputs": [],
      "stateMutability": "nonpayable",
      "type": "function"
    },
    {
      "inputs": [
        {
          "internalType": "address",
          "name": "account",
          "type": "address"
        }
      ],
      "name": "delegates",
      "outputs": [
        {
          "internalType": "address",
          "name": "",
          "type": "address"
        }
      ],
      "stateMutability": "view",
      "type": "function"
    },
    {
      "inputs": [],
      "name": "eip712Domain",
      "outputs": [
        {
          "internalType": "bytes1",
          "name": "fields",
          "type": "bytes1"
        },
        {
          "internalType": "string",
          "name": "name",
          "type": "string"
        },
        {
          "internalType": "string",
          "name": "version",
          "type": "string"
        },
        {
          "internalType": "uint256",
          "name": "chainId",
          "type": "uint256"
        },
        {
          "internalType": "address",
          "name": "verifyingContract",
          "type": "address"
        },
        {
          "internalType": "bytes32",
          "name": "salt",
          "type": "bytes32"
        },
        {
          "internalType": "uint256[]",
          "name": "extensions",
          "type": "uint256[]"
        }
      ],
      "stateMutability": "view",
      "type": "function"
    },
    {
      "inputs": [
        {
          "internalType": "uint256",
          "name": "timepoint",
          "type": "uint256"
        }
      ],
      "name": "getPastTotalSupply",
      "outputs": [
        {
          "internalType": "uint256",
          "name": "",
          "type": "uint256"
        }
      ],
      "stateMutability": "view",
      "type": "function"
    },
    {
      "inputs": [
        {
          "internalType": "address",
          "name": "account",
          "type": "address"
        },
        {
          "internalType": "uint256",
          "name": "timepoint",
          "type": "uint256"
        }
      ],
      "name": "getPastVotes",
      "outputs": [
        {
          "internalType": "uint256",
          "name": "",
          "type": "uint256"
        }
      ],
      "stateMutability": "view",
      "type": "function"
    },
    {
      "inputs": [
        {
          "internalType": "address",
          "name": "account",
          "type": "address"
        }
      ],
      "name": "getVotes",
      "outputs": [
        {
          "internalType": "uint256",
          "name": "",
          "type": "uint256"
        }
      ],
      "stateMutability": "view",
      "type": "function"
    },
    {
      "inputs": [
        {
          "internalType": "address",
          "name": "to",
          "type": "address"
        },
        {
          "internalType": "uint256",
          "name": "amount",
          "type": "uint256"
        }
      ],
      "name": "mint",
      "outputs": [],
      "stateMutability": "nonpayable",
      "type": "function"
    },
    {
      "inputs": [],
      "name": "name",
      "outputs": [
        {
          "internalType": "string",
          "name": "",
          "type": "string"
        }
      ],
      "stateMutability": "view",
      "type": "function"
    },
    {
      "inputs": [
        {
          "internalType": "address",
          "name": "owner",
          "type": "address"
        }
      ],
      "name": "nonces",
      "outputs": [
        {
          "internalType": "uint256",
          "name": "",
          "type": "uint256"
        }
      ],
      "stateMutability": "view",
      "type": "function"
    },
    {
      "inputs": [
        {
          "internalType": "address",
          "name": "account",
          "type": "address"
        }
      ],
      "name": "numCheckpoints",
      "outputs": [
        {
          "internalType": "uint32",
          "name": "",
          "type": "uint32"
        }
      ],
      "stateMutability": "view",
      "type": "function"
    },
    {
      "inputs": [],
      "name": "owner",
      "outputs": [
        {
          "internalType": "address",
          "name": "",
          "type": "address"
        }
      ],
      "stateMutability": "view",
      "type": "function"
    },
    {
      "inputs": [
        {
          "internalType": "address",
          "name": "owner",
          "type": "address"
        },
        {
          "internalType": "address",
          "name": "spender",
          "type": "address"
        },
        {
          "internalType": "uint256",
          "name": "value",
          "type": "uint256"
        },
        {
          "internalType": "uint256",
          "name": "deadline",
          "type": "uint256"
        },
        {
          "internalType": "uint8",
          "name": "v",
          "type": "uint8"
        },
        {
          "internalType": "bytes32",
          "name": "r",
          "type": "bytes32"
        },
        {
          "internalType": "bytes32",
          "name": "s",
          "type": "bytes32"
        }
      ],
      "name": "permit",
      "outputs": [],
      "stateMutability": "nonpayable",
      "type": "function"
    },
    {
      "inputs": [],
      "name": "renounceOwnership",
      "outputs": [],
      "stateMutability": "nonpayable",
      "type": "function"
    },
    {
      "inputs": [],
      "name": "symbol",
      "outputs": [
        {
          "internalType": "string",
          "name": "",
          "type": "string"
        }
      ],
      "stateMutability": "view",
      "type": "function"
    },
    {
      "inputs": [],
      "name": "totalSupply",
      "outputs": [
        {
          "internalType": "uint256",
          "name": "",
          "type": "uint256"
        }
      ],
      "stateMutability": "view",
      "type": "function"
    },
    {
      "inputs": [
        {
          "internalType": "address",
          "name": "to",
          "type": "address"
        },
        {
          "internalType": "uint256",
          "name": "value",
          "type": "uint256"
        }
      ],
      "name": "transfer",
      "outputs": [
        {
          "internalType": "bool",
          "name": "",
          "type": "bool"
        }
      ],
      "stateMutability": "nonpayable",
      "type": "function"
    },
    {
      "inputs": [
        {
          "internalType": "address",
          "name": "from",
          "type": "address"
        },
        {
          "internalType": "address",
          "name": "to",
          "type": "address"
        },
        {
          "internalType": "uint256",
          "name": "value",
          "type": "uint256"
        }
      ],
      "name": "transferFrom",
      "outputs": [
        {
          "internalType": "bool",
          "name": "",
          "type": "bool"
        }
      ],
      "stateMutability": "nonpayable",
      "type": "function"
    },
    {
      "inputs": [
        {
          "internalType": "address",
          "name": "newOwner",
          "type": "address"
        }
      ],
      "name": "transferOwnership",
      "outputs": [],
      "stateMutability": "nonpayable",
      "type": "function"
    }
  ],
  "bytecode": "0x61016060405234801561001157600080fd5b506040518060400160405280600781526020016626bcaa37b5b2b760c91b81525080604051806040016040528060018152602001603160f81b815250336040518060400160405280600781526020016626bcaa37b5b2b760c91b815250604051806040016040528060038152602001624d544b60e81b815250816003908161009991906109bc565b5060046100a682826109bc565b5050506001600160a01b0381166100d857604051631e4fbdf760e01b8152600060048201526024015b60405180910390fd5b6100e1816101b9565b506100ed82600661020b565b610120526100fc81600761020b565b61014052815160208084019190912060e052815190820120610100524660a05261018960e05161010051604080517f8b73c3c69bb8fe3d512ecc4cf759cc79239f7b179b0ffacaa9a75d522b39400f60208201529081019290925260608201524660808201523060a082015260009060c00160405160208183030381529060405280519060200120905090565b60805250503060c052506101b4336101a36012600a610b6f565b6101af90612710610b7e565b61023e565b610c6b565b600580546001600160a01b038381166001600160a01b0319831681179093556040519116919082907f8be0079c531659141344cd1fd0a4f28419497f9722a3daafe3b4186f6b6457e090600090a35050565b60006020835110156102275761022083610278565b9050610238565b8161023284826109bc565b5060ff90505b92915050565b6001600160a01b0382166102685760405163ec442f0560e01b8152600060048201526024016100cf565b610274600083836102b6565b5050565b600080829050601f815111156102a3578260405163305a27a960e01b81526004016100cf9190610b95565b80516102ae82610be3565b179392505050565b6102c18383836102c6565b505050565b6102d183838361035f565b6040805180820190915260128152714552433230566f7465733a5f75706461746560701b602082015261030390610489565b6001600160a01b03831661035457600061031c60025490565b90506001600160d01b038082111561035157604051630e58ae9360e11b815260048101839052602481018290526044016100cf565b50505b6102c18383836104d3565b6001600160a01b03831661038a57806002600082825461037f9190610c07565b909155506103fc9050565b6001600160a01b038316600090815260208190526040902054818110156103dd5760405163391434e360e21b81526001600160a01b038516600482015260248101829052604481018390526064016100cf565b6001600160a01b03841660009081526020819052604090209082900390555b6001600160a01b03821661041857600280548290039055610437565b6001600160a01b03821660009081526020819052604090208054820190555b816001600160a01b0316836001600160a01b03167fddf252ad1be2c89b69c2b068fc378daa952ba7f163c4a11628f55a4df523b3ef8360405161047c91815260200190565b60405180910390a3505050565b6104d08160405160240161049d9190610b95565b60408051601f198184030181529190526020810180516001600160e01b0390811663104c13eb60e21b1790915261055c16565b50565b6001600160a01b038316610501576104fe600b6108e261056f60201b176104f984610582565b6105ba565b50505b6001600160a01b03821661052a57610527600b6108ee6105e960201b176104f984610582565b50505b6001600160a01b038381166000908152600960205260408082205485841683529120546102c1929182169116836105f5565b6104d08161074a60201b6108fa1760201c565b600061057b8284610c1a565b9392505050565b60006001600160d01b038211156105b6576040516306dfcc6560e41b815260d06004820152602481018390526044016100cf565b5090565b6000806105dc426105d46105cd8861076b565b868860201c565b8791906107b5565b915091505b935093915050565b600061057b8284610c39565b816001600160a01b0316836001600160a01b0316141580156106175750600081115b156102c1576001600160a01b038316156106b1576001600160a01b0383166000908152600a602090815260408220829161065e91906105e9901b6108ee176104f986610582565b6001600160d01b031691506001600160d01b03169150846001600160a01b0316600080516020612c2f83398151915283836040516106a6929190918252602082015260400190565b60405180910390a250505b6001600160a01b038216156102c1576001600160a01b0382166000908152600a60209081526040822082916106f3919061056f901b6108e2176104f986610582565b6001600160d01b031691506001600160d01b03169150836001600160a01b0316600080516020612c2f833981519152838360405161073b929190918252602082015260400190565b60405180910390a25050505050565b60006a636f6e736f6c652e6c6f679050600080835160208501845afa505050565b805460009080156107ac5761079383610785600184610c58565b600091825260209091200190565b54660100000000000090046001600160d01b031661057b565b60009392505050565b6000806105dc8585858254600090819080156108c05760006107dc87610785600185610c58565b805490915065ffffffffffff80821691660100000000000090046001600160d01b031690881682111561082257604051632520601d60e01b815260040160405180910390fd5b8765ffffffffffff168265ffffffffffff160361085e57825465ffffffffffff1666010000000000006001600160d01b038916021783556108b2565b6040805180820190915265ffffffffffff808a1682526001600160d01b03808a1660208085019182528d54600181018f5560008f815291909120945191519092166601000000000000029216919091179101555b94508593506105e192505050565b50506040805180820190915265ffffffffffff80851682526001600160d01b0380851660208085019182528854600181018a5560008a81529182209551925190931666010000000000000291909316179201919091559050816105e1565b634e487b7160e01b600052604160045260246000fd5b600181811c9082168061094857607f821691505b60208210810361096857634e487b7160e01b600052602260045260246000fd5b50919050565b601f8211156102c157806000526020600020601f840160051c810160208510156109955750805b601f840160051c820191505b818110156109b557600081556001016109a1565b5050505050565b81516001600160401b038111156109d5576109d561091e565b6109e9816109e38454610934565b8461096e565b6020601f821160018114610a1d5760008315610a055750848201515b600019600385901b1c1916600184901b1784556109b5565b600084815260208120601f198516915b82811015610a4d5787850151825560209485019460019092019101610a2d565b5084821015610a6b5786840151600019600387901b60f8161c191681555b50505050600190811b01905550565b634e487b7160e01b600052601160045260246000fd5b6001815b60018411156105e157808504811115610aaf57610aaf610a7a565b6001841615610abd57908102905b60019390931c928002610a94565b600082610ada57506001610238565b81610ae757506000610238565b8160018114610afd5760028114610b0757610b23565b6001915050610238565b60ff841115610b1857610b18610a7a565b50506001821b610238565b5060208310610133831016604e8410600b8410161715610b46575081810a610238565b610b536000198484610a90565b8060001904821115610b6757610b67610a7a565b029392505050565b600061057b60ff841683610acb565b808202811582820484141761023857610238610a7a565b602081526000825180602084015260005b81811015610bc35760208186018101516040868401015201610ba6565b506000604082850101526040601f19601f83011684010191505092915050565b805160208083015191908110156109685760001960209190910360031b1b16919050565b8082018082111561023857610238610a7a565b6001600160d01b03818116838216019081111561023857610238610a7a565b6001600160d01b03828116828216039081111561023857610238610a7a565b8181038181111561023857610238610a7a565b60805160a05160c05160e051610100516101205161014051611f6a610cc56000396000610dcc01526000610d9f01526000610ae501526000610abd01526000610a1801526000610a4201526000610a6c0152611f6a6000f3fe608060405234801561001057600080fd5b50600436106101a95760003560e01c8063715018a6116100f95780639ab24eb011610097578063d505accf11610071578063d505accf146103d6578063dd62ed3e146103e9578063f1127ed814610422578063f2fde38b1461046157600080fd5b80639ab24eb01461039d578063a9059cbb146103b0578063c3cda520146103c357600080fd5b80638da5cb5b116100d35780638da5cb5b1461035b5780638e539e8c1461036c57806391ddadf41461037f57806395d89b411461039557600080fd5b8063715018a6146103255780637ecebe001461032d57806384b0196e1461034057600080fd5b80633a46b1a811610166578063587cde1e11610140578063587cde1e1461027d5780635c19a95c146102c15780636fcfff45146102d457806370a08231146102fc57600080fd5b80633a46b1a81461022b57806340c10f191461023e5780634bf5d7e91461025357600080fd5b806306fdde03146101ae578063095ea7b3146101cc57806318160ddd146101ef57806323b872dd14610201578063313ce567146102145780633644e51514610223575b600080fd5b6101b6610474565b6040516101c39190611b5d565b60405180910390f35b6101df6101da366004611b8c565b610506565b60405190151581526020016101c3565b6002545b6040519081526020016101c3565b6101df61020f366004611bb6565b610520565b604051601281526020016101c3565b6101f3610544565b6101f3610239366004611b8c565b610553565b61025161024c366004611b8c565b61058f565b005b60408051808201909152600e81526d06d6f64653d74696d657374616d760941b60208201526101b6565b6102a961028b366004611bf3565b6001600160a01b039081166000908152600960205260409020541690565b6040516001600160a01b0390911681526020016101c3565b6102516102cf366004611bf3565b6105a5565b6102e76102e2366004611bf3565b6105b0565b60405163ffffffff90911681526020016101c3565b6101f361030a366004611bf3565b6001600160a01b031660009081526020819052604090205490565b6102516105bb565b6101f361033b366004611bf3565b6105cf565b6103486105da565b6040516101c39796959493929190611c0e565b6005546001600160a01b03166102a9565b6101f361037a366004611ca6565b610620565b60405165ffffffffffff421681526020016101c3565b6101b6610645565b6101f36103ab366004611bf3565b610654565b6101df6103be366004611b8c565b610675565b6102516103d1366004611cd0565b610683565b6102516103e4366004611d28565b610745565b6101f36103f7366004611d93565b6001600160a01b03918216600090815260016020908152604080832093909416825291909152205490565b610435610430366004611dc6565b61087f565b60408051825165ffffffffffff1681526020928301516001600160d01b031692810192909252016101c3565b61025161046f366004611bf3565b6108a4565b60606003805461048390611e06565b80601f01602080910402602001604051908101604052809291908181526020018280546104af90611e06565b80156104fc5780601f106104d1576101008083540402835291602001916104fc565b820191906000526020600020905b8154815290600101906020018083116104df57829003601f168201915b5050505050905090565b60003361051481858561091b565b60019150505b92915050565b60003361052e85828561092d565b6105398585856109ac565b506001949350505050565b600061054e610a0b565b905090565b600061057f61056183610b36565b6001600160a01b0385166000908152600a6020526040902090610b7b565b6001600160d01b03169392505050565b610597610c31565b6105a18282610c5e565b5050565b336105a18183610c94565b600061051a82610d06565b6105c3610c31565b6105cd6000610d28565b565b600061051a82610d7a565b6000606080600080600060606105ee610d98565b6105f6610dc5565b60408051600080825260208201909252600f60f81b9b939a50919850469750309650945092509050565b600061063661062e83610b36565b600b90610b7b565b6001600160d01b031692915050565b60606004805461048390611e06565b6001600160a01b0381166000908152600a6020526040812061063690610df2565b6000336105148185856109ac565b834211156106ac57604051632341d78760e11b8152600481018590526024015b60405180910390fd5b604080517fe48329057bfd03d55e49b547132e39cffd9c1820ad7b9d4c5307691425d15adf60208201526001600160a01b0388169181019190915260608101869052608081018590526000906107269061071e9060a00160405160208183030381529060405280519060200120610e2b565b858585610e58565b90506107328187610e86565b61073c8188610c94565b50505050505050565b834211156107695760405163313c898160e11b8152600481018590526024016106a3565b60007f6e71edae12b1b97f4d1f60370fef10105fa2faae0126114a169c64845d6126c98888886107b68c6001600160a01b0316600090815260086020526040902080546001810190915590565b6040805160208101969096526001600160a01b0394851690860152929091166060840152608083015260a082015260c0810186905260e001604051602081830303815290604052805190602001209050600061081182610e2b565b9050600061082182878787610e58565b9050896001600160a01b0316816001600160a01b031614610868576040516325c0072360e11b81526001600160a01b0380831660048301528b1660248201526044016106a3565b6108738a8a8a61091b565b50505050505050505050565b604080518082019091526000808252602082015261089d8383610ed9565b9392505050565b6108ac610c31565b6001600160a01b0381166108d657604051631e4fbdf760e01b8152600060048201526024016106a3565b6108df81610d28565b50565b600061089d8284611e56565b600061089d8284611e75565b60006a636f6e736f6c652e6c6f679050600080835160208501845afa505050565b6109288383836001610f0f565b505050565b6001600160a01b038381166000908152600160209081526040808320938616835292905220546000198110156109a6578181101561099757604051637dc7a0d960e11b81526001600160a01b038416600482015260248101829052604481018390526064016106a3565b6109a684848484036000610f0f565b50505050565b6001600160a01b0383166109d657604051634b637e8f60e11b8152600060048201526024016106a3565b6001600160a01b038216610a005760405163ec442f0560e01b8152600060048201526024016106a3565b610928838383610fe4565b6000306001600160a01b037f000000000000000000000000000000000000000000000000000000000000000016148015610a6457507f000000000000000000000000000000000000000000000000000000000000000046145b15610a8e57507f000000000000000000000000000000000000000000000000000000000000000090565b61054e604080517f8b73c3c69bb8fe3d512ecc4cf759cc79239f7b179b0ffacaa9a75d522b39400f60208201527f0000000000000000000000000000000000000000000000000000000000000000918101919091527f000000000000000000000000000000000000000000000000000000000000000060608201524660808201523060a082015260009060c00160405160208183030381529060405280519060200120905090565b60004265ffffffffffff81168310610b7257604051637669fc0f60e11b81526004810184905265ffffffffffff821660248201526044016106a3565b61089d83610fef565b815460009081816005811115610bda576000610b9684611026565b610ba09085611e94565b60008881526020902090915081015465ffffffffffff9081169087161015610bca57809150610bd8565b610bd5816001611ea7565b92505b505b6000610be88787858561117f565b90508015610c2357610c0d87610bff600184611e94565b600091825260209091200190565b54600160301b90046001600160d01b0316610c26565b60005b979650505050505050565b6005546001600160a01b031633146105cd5760405163118cdaa760e01b81523360048201526024016106a3565b6001600160a01b038216610c885760405163ec442f0560e01b8152600060048201526024016106a3565b6105a160008383610fe4565b6001600160a01b0382811660008181526009602052604080822080548686166001600160a01b0319821681179092559151919094169392849290917f3134e8a2e6d97e929a7e54011ea5485d7d196dd5f0ba4d4ef95803e8e3fc257f9190a46109288183610d01866111e1565b6111ff565b6001600160a01b0381166000908152600a602052604081205461051a9061136b565b600580546001600160a01b038381166001600160a01b0319831681179093556040519116919082907f8be0079c531659141344cd1fd0a4f28419497f9722a3daafe3b4186f6b6457e090600090a35050565b6001600160a01b03811660009081526008602052604081205461051a565b606061054e7f0000000000000000000000000000000000000000000000000000000000000000600661139c565b606061054e7f0000000000000000000000000000000000000000000000000000000000000000600761139c565b80546000908015610e2257610e0c83610bff600184611e94565b54600160301b90046001600160d01b031661089d565b60009392505050565b600061051a610e38610a0b565b8360405161190160f01b8152600281019290925260228201526042902090565b600080600080610e6a88888888611447565b925092509250610e7a8282611516565b50909695505050505050565b6001600160a01b0382166000908152600860205260409020805460018101909155818114610928576040516301d4b62360e61b81526001600160a01b0384166004820152602481018290526044016106a3565b60408051808201909152600080825260208201526001600160a01b0383166000908152600a6020526040902061089d90836115cf565b6001600160a01b038416610f395760405163e602df0560e01b8152600060048201526024016106a3565b6001600160a01b038316610f6357604051634a1406b160e11b8152600060048201526024016106a3565b6001600160a01b03808516600090815260016020908152604080832093871683529290522082905580156109a657826001600160a01b0316846001600160a01b03167f8c5be1e5ebec7d5bd14f71427d1e84f3dd0314c0f7b2291e5b200ac8c7c3b92584604051610fd691815260200190565b60405180910390a350505050565b61092883838361163f565b600065ffffffffffff821115611022576040516306dfcc6560e41b815260306004820152602481018390526044016106a3565b5090565b600060018211611034575090565b816001600160801b821061104d5760809190911c9060401b5b6801000000000000000082106110685760409190911c9060201b5b640100000000821061107f5760209190911c9060101b5b6201000082106110945760109190911c9060081b5b61010082106110a85760089190911c9060041b5b601082106110bb5760049190911c9060021b5b600482106110c75760011b5b600302600190811c908185816110df576110df611eba565b048201901c905060018185816110f7576110f7611eba565b048201901c9050600181858161110f5761110f611eba565b048201901c9050600181858161112757611127611eba565b048201901c9050600181858161113f5761113f611eba565b048201901c9050600181858161115757611157611eba565b048201901c905061117681858161117057611170611eba565b04821190565b90039392505050565b60005b818310156111d957600061119684846116d9565b60008781526020902090915065ffffffffffff86169082015465ffffffffffff1611156111c5578092506111d3565b6111d0816001611ea7565b93505b50611182565b509392505050565b6001600160a01b03811660009081526020819052604081205461051a565b816001600160a01b0316836001600160a01b0316141580156112215750600081115b15610928576001600160a01b038316156112c9576001600160a01b0383166000908152600a602052604081208190611264906108ee61125f866116f4565b611728565b6001600160d01b031691506001600160d01b03169150846001600160a01b03167fdec2bacdd2f05b59de34da9b523dff8be42e5e38e818c82fdb0bae774387a72483836040516112be929190918252602082015260400190565b60405180910390a250505b6001600160a01b03821615610928576001600160a01b0382166000908152600a602052604081208190611302906108e261125f866116f4565b6001600160d01b031691506001600160d01b03169150836001600160a01b03167fdec2bacdd2f05b59de34da9b523dff8be42e5e38e818c82fdb0bae774387a724838360405161135c929190918252602082015260400190565b60405180910390a25050505050565b600063ffffffff821115611022576040516306dfcc6560e41b815260206004820152602481018390526044016106a3565b606060ff83146113b6576113af8361175a565b905061051a565b8180546113c290611e06565b80601f01602080910402602001604051908101604052809291908181526020018280546113ee90611e06565b801561143b5780601f106114105761010080835404028352916020019161143b565b820191906000526020600020905b81548152906001019060200180831161141e57829003601f168201915b5050505050905061051a565b600080807f7fffffffffffffffffffffffffffffff5d576e7357a4501ddfe92f46681b20a0841115611482575060009150600390508261150c565b604080516000808252602082018084528a905260ff891692820192909252606081018790526080810186905260019060a0016020604051602081039080840390855afa1580156114d6573d6000803e3d6000fd5b5050604051601f1901519150506001600160a01b0381166115025750600092506001915082905061150c565b9250600091508190505b9450945094915050565b600082600381111561152a5761152a611ed0565b03611533575050565b600182600381111561154757611547611ed0565b036115655760405163f645eedf60e01b815260040160405180910390fd5b600282600381111561157957611579611ed0565b0361159a5760405163fce698f760e01b8152600481018290526024016106a3565b60038260038111156115ae576115ae611ed0565b036105a1576040516335e2f38360e21b8152600481018290526024016106a3565b6040805180820190915260008082526020820152826000018263ffffffff16815481106115fe576115fe611ee6565b60009182526020918290206040805180820190915291015465ffffffffffff81168252600160301b90046001600160d01b0316918101919091529392505050565b61164a838383611799565b61167d604051806040016040528060128152602001714552433230566f7465733a5f75706461746560701b8152506118c3565b6001600160a01b0383166116ce57600061169660025490565b90506001600160d01b03808211156116cb57604051630e58ae9360e11b815260048101839052602481018290526044016106a3565b50505b610928838383611906565b60006116e86002848418611efc565b61089d90848416611ea7565b60006001600160d01b03821115611022576040516306dfcc6560e41b815260d06004820152602481018390526044016106a3565b60008061174d4261174561173b88610df2565b868863ffffffff16565b87919061197c565b915091505b935093915050565b606060006117678361198a565b604080516020808252818301909252919250600091906020820181803683375050509182525060208101929092525090565b6001600160a01b0383166117c45780600260008282546117b99190611ea7565b909155506118369050565b6001600160a01b038316600090815260208190526040902054818110156118175760405163391434e360e21b81526001600160a01b038516600482015260248101829052604481018390526064016106a3565b6001600160a01b03841660009081526020819052604090209082900390555b6001600160a01b03821661185257600280548290039055611871565b6001600160a01b03821660009081526020819052604090208054820190555b816001600160a01b0316836001600160a01b03167fddf252ad1be2c89b69c2b068fc378daa952ba7f163c4a11628f55a4df523b3ef836040516118b691815260200190565b60405180910390a3505050565b6108df816040516024016118d79190611b5d565b60408051601f198184030181529190526020810180516001600160e01b031663104c13eb60e21b1790526119b2565b6001600160a01b03831661192857611925600b6108e261125f846116f4565b50505b6001600160a01b03821661194a57611947600b6108ee61125f846116f4565b50505b6001600160a01b03838116600090815260096020526040808220548584168352912054610928929182169116836111ff565b60008061174d8585856119bb565b600060ff8216601f81111561051a57604051632cd44ac360e21b815260040160405180910390fd5b6108df816108fa565b825460009081908015611ab45760006119d987610bff600185611e94565b805490915065ffffffffffff80821691600160301b90046001600160d01b0316908816821115611a1c57604051632520601d60e01b815260040160405180910390fd5b8765ffffffffffff168265ffffffffffff1603611a5557825465ffffffffffff16600160301b6001600160d01b03891602178355611aa6565b6040805180820190915265ffffffffffff808a1682526001600160d01b03808a1660208085019182528d54600181018f5560008f81529190912094519151909216600160301b029216919091179101555b945085935061175292505050565b50506040805180820190915265ffffffffffff80851682526001600160d01b0380851660208085019182528854600181018a5560008a815291822095519251909316600160301b029190931617920191909155905081611752565b6105cd611f1e565b6000815180845260005b81811015611b3d57602081850181015186830182015201611b21565b506000602082860101526020601f19601f83011685010191505092915050565b60208152600061089d6020830184611b17565b80356001600160a01b0381168114611b8757600080fd5b919050565b60008060408385031215611b9f57600080fd5b611ba883611b70565b946020939093013593505050565b600080600060608486031215611bcb57600080fd5b611bd484611b70565b9250611be260208501611b70565b929592945050506040919091013590565b600060208284031215611c0557600080fd5b61089d82611b70565b60ff60f81b8816815260e060208201526000611c2d60e0830189611b17565b8281036040840152611c3f8189611b17565b606084018890526001600160a01b038716608085015260a0840186905283810360c08501528451808252602080870193509091019060005b81811015611c95578351835260209384019390920191600101611c77565b50909b9a5050505050505050505050565b600060208284031215611cb857600080fd5b5035919050565b803560ff81168114611b8757600080fd5b60008060008060008060c08789031215611ce957600080fd5b611cf287611b70565b95506020870135945060408701359350611d0e60608801611cbf565b9598949750929560808101359460a0909101359350915050565b600080600080600080600060e0888a031215611d4357600080fd5b611d4c88611b70565b9650611d5a60208901611b70565b95506040880135945060608801359350611d7660808901611cbf565b9699959850939692959460a0840135945060c09093013592915050565b60008060408385031215611da657600080fd5b611daf83611b70565b9150611dbd60208401611b70565b90509250929050565b60008060408385031215611dd957600080fd5b611de283611b70565b9150602083013563ffffffff81168114611dfb57600080fd5b809150509250929050565b600181811c90821680611e1a57607f821691505b602082108103611e3a57634e487b7160e01b600052602260045260246000fd5b50919050565b634e487b7160e01b600052601160045260246000fd5b6001600160d01b03818116838216019081111561051a5761051a611e40565b6001600160d01b03828116828216039081111561051a5761051a611e40565b8181038181111561051a5761051a611e40565b8082018082111561051a5761051a611e40565b634e487b7160e01b600052601260045260246000fd5b634e487b7160e01b600052602160045260246000fd5b634e487b7160e01b600052603260045260246000fd5b600082611f1957634e487b7160e01b600052601260045260246000fd5b500490565b634e487b7160e01b600052605160045260246000fdfea2646970667358221220b4501fe129f925745ae1788d1086592c7bf030fcc00d36f355a2ad8de62c8ec864736f6c634300081b0033dec2bacdd2f05b59de34da9b523dff8be42e5e38e818c82fdb0bae774387a724",
  "linkReferences": {},
  "deployedLinkReferences": {}
}